{"abi":[{"type":"constructor","inputs":[],"stateMutability":"nonpayable"},{"type":"function","name":"allowlist","inputs":[{"name":"","type":"address","internalType":"address"}],"outputs":[{"name":"","type":"bool","internalType":"bool"}],"stateMutability":"view"},{"type":"function","name":"isAllowlisted","inputs":[{"name":"who","type":"address","internalType":"address"}],"outputs":[{"name":"","type":"bool","internalType":"bool"}],"stateMutability":"view"},{"type":"function","name":"owner","inputs":[],"outputs":[{"name":"","type":"address","internalType":"address"}],"stateMutability":"view"},{"type":"function","name":"pamsNFT","inputs":[],"outputs":[{"name":"","type":"address","internalType":"address"}],"stateMutability":"view"},{"type":"function","name":"phase","inputs":[],"outputs":[{"name":"","type":"uint8","internalType":"uint8"}],"stateMutability":"view"},{"type":"function","name":"setAllowlistBatch","inputs":[{"name":"addrs","type":"address[]","internalType":"address[]"}],"outputs":[],"stateMutability":"nonpayable"},{"type":"function","name":"setPamsNFT","inputs":[{"name":"nft","type":"address","internalType":"address"}],"outputs":[],"stateMutability":"nonpayable"},{"type":"function","name":"setPhase","inputs":[{"name":"p","type":"uint8","internalType":"uint8"}],"outputs":[],"stateMutability":"nonpayable"},{"type":"function","name":"transferOwnership","inputs":[{"name":"next","type":"address","internalType":"address"}],"outputs":[],"stateMutability":"nonpayable"},{"type":"event","name":"AllowlistAdded","inputs":[{"name":"who","type":"address","indexed":true,"internalType":"address"}],"anonymous":false},{"type":"event","name":"OwnershipTransferred","inputs":[{"name":"prev","type":"address","indexed":true,"internalType":"address"},{"name":"next","type":"address","indexed":true,"internalType":"address"}],"anonymous":false},{"type":"event","name":"PamsNftSet","inputs":[{"name":"nft","type":"address","indexed":true,"internalType":"address"}],"anonymous":false},{"type":"event","name":"PhaseSet","inputs":[{"name":"p","type":"uint8","indexed":false,"internalType":"uint8"}],"anonymous":false}],"bytecode":{"object":"0x60808060405234604e57600080546001600160a01b031916339081178255907f8be0079c531659141344cd1fd0a4f28419497f9722a3daafe3b4186f6b6457e08180a36105e690816100548239f35b600080fdfe6080604052600436101561001257600080fd5b60003560e01c806305a3b809146103d15780633e3b9cea146102e45780638da5cb5b146102bb5780639bb0014f14610247578063a7cd52cb14610204578063b1c9fe6e146101e0578063c03afb591461015f578063db26a399146101365763f2fde38b1461007f57600080fd5b34610131576020366003190112610131576004356001600160a01b03811690819003610131576000546001600160a01b0381166100bd338214610539565b82156100fa5782907f8be0079c531659141344cd1fd0a4f28419497f9722a3daafe3b4186f6b6457e0600080a36001600160a01b03191617600055005b60405162461bcd60e51b815260206004820152600f60248201526e20a1a61d103d32b9379037bbb732b960891b6044820152606490fd5b600080fd5b34610131576000366003190112610131576002546040516001600160a01b039091168152602090f35b346101315760203660031901126101315760043560ff811690818103610131576000547f0509320fafbee98cfcbf27d06905ceb04a2c2524a6a7f9a57ae3a5ca6c58243d926020929091906101be336001600160a01b03841614610539565b60ff60a01b1990911660a09190911b60ff60a01b1617600055604051908152a1005b3461013157600036600319011261013157602060ff60005460a01c16604051908152f35b34610131576020366003190112610131576004356001600160a01b03811690819003610131576000526001602052602060ff604060002054166040519015158152f35b34610131576020366003190112610131576004356001600160a01b038116908190036101315761028260018060a01b03600054163314610539565b600280546001600160a01b031916821790557f72babedc7151bf6fe1c269816220bedef2a1f0d7438766e2374595a87f1239b3600080a2005b34610131576000366003190112610131576000546040516001600160a01b039091168152602090f35b346101315760203660031901126101315760043567ffffffffffffffff811161013157366023820112156101315780600401359067ffffffffffffffff8211610131576024810190602436918460051b0101116101315761035060018060a01b03600054163314610539565b60005b82811061035c57005b6001906001600160a01b0361037a610375838787610576565b61059c565b166000528160205260406000208260ff19825416179055818060a01b036103a5610375838787610576565b167f28f54e0b69489ad5fd27625e6fcff58faff5da96f8a077d08bb09af25bb41d54600080a201610353565b34610131576020366003190112610131576004356001600160a01b03811681036101315761040060209161040a565b6040519015158152f35b60ff60005460a01c168015610532576002546001600160a01b03168015610529576040516370a0823160e01b81526001600160a01b038416600482015290602090829060249082905afa90811561051d576000916104be575b501515915b600182146104b9576002821461048c5750600391501461048757600090565b600190565b6001600160a01b031660009081526001602052604090205460ff1691905081156104b4575090565b905090565b505090565b9060203d602011610516575b601f8101601f1916830167ffffffffffffffff811184821017610502576020918491604052810103126104ff57505138610463565b80fd5b634e487b7160e01b83526041600452602483fd5b503d6104ca565b6040513d6000823e3d90fd5b50600091610468565b5050600090565b1561054057565b60405162461bcd60e51b815260206004820152600e60248201526d20a1a61d103737ba1037bbb732b960911b6044820152606490fd5b91908110156105865760051b0190565b634e487b7160e01b600052603260045260246000fd5b356001600160a01b0381168103610131579056fea2646970667358221220aad0cc2a12ab1736fd8af57f578a28236a695c4e400a6085cf8c31b127d0610164736f6c634300081e0033","linkReferences":{}},"methodIdentifiers":{"allowlist(address)":"a7cd52cb","isAllowlisted(address)":"05a3b809","owner()":"8da5cb5b","pamsNFT()":"db26a399","phase()":"b1c9fe6e","setAllowlistBatch(address[])":"3e3b9cea","setPamsNFT(address)":"9bb0014f","setPhase(uint8)":"c03afb59","transferOwnership(address)":"f2fde38b"},"id":23}