{"abi":[{"type":"constructor","inputs":[{"name":"name_","type":"string","internalType":"string"},{"name":"symbol_","type":"string","internalType":"string"},{"name":"_a","type":"uint256","internalType":"uint256"},{"name":"_b","type":"uint256","internalType":"uint256"},{"name":"_treasury","type":"address","internalType":"address"},{"name":"_feeBps","type":"uint256","internalType":"uint256"},{"name":"initialOwner","type":"address","internalType":"address"}],"stateMutability":"nonpayable"},{"type":"receive","stateMutability":"payable"},{"type":"function","name":"a","inputs":[],"outputs":[{"name":"","type":"uint256","internalType":"uint256"}],"stateMutability":"view"},{"type":"function","name":"acl","inputs":[],"outputs":[{"name":"","type":"address","internalType":"contract IAccessController"}],"stateMutability":"view"},{"type":"function","name":"allowance","inputs":[{"name":"owner","type":"address","internalType":"address"},{"name":"spender","type":"address","internalType":"address"}],"outputs":[{"name":"","type":"uint256","internalType":"uint256"}],"stateMutability":"view"},{"type":"function","name":"approve","inputs":[{"name":"spender","type":"address","internalType":"address"},{"name":"value","type":"uint256","internalType":"uint256"}],"outputs":[{"name":"","type":"bool","internalType":"bool"}],"stateMutability":"nonpayable"},{"type":"function","name":"b","inputs":[],"outputs":[{"name":"","type":"uint256","internalType":"uint256"}],"stateMutability":"view"},{"type":"function","name":"balanceOf","inputs":[{"name":"account","type":"address","internalType":"address"}],"outputs":[{"name":"","type":"uint256","internalType":"uint256"}],"stateMutability":"view"},{"type":"function","name":"buyExactEth","inputs":[{"name":"minTokensOut","type":"uint256","internalType":"uint256"}],"outputs":[],"stateMutability":"payable"},{"type":"function","name":"costToMint","inputs":[{"name":"amount","type":"uint256","internalType":"uint256"}],"outputs":[{"name":"","type":"uint256","internalType":"uint256"}],"stateMutability":"view"},{"type":"function","name":"decimals","inputs":[],"outputs":[{"name":"","type":"uint8","internalType":"uint8"}],"stateMutability":"view"},{"type":"function","name":"feeBps","inputs":[],"outputs":[{"name":"","type":"uint256","internalType":"uint256"}],"stateMutability":"view"},{"type":"function","name":"name","inputs":[],"outputs":[{"name":"","type":"string","internalType":"string"}],"stateMutability":"view"},{"type":"function","name":"owner","inputs":[],"outputs":[{"name":"","type":"address","internalType":"address"}],"stateMutability":"view"},{"type":"function","name":"paused","inputs":[],"outputs":[{"name":"","type":"bool","internalType":"bool"}],"stateMutability":"view"},{"type":"function","name":"price","inputs":[{"name":"s","type":"uint256","internalType":"uint256"}],"outputs":[{"name":"","type":"uint256","internalType":"uint256"}],"stateMutability":"view"},{"type":"function","name":"renounceOwnership","inputs":[],"outputs":[],"stateMutability":"nonpayable"},{"type":"function","name":"rewardToBurn","inputs":[{"name":"amount","type":"uint256","internalType":"uint256"}],"outputs":[{"name":"","type":"uint256","internalType":"uint256"}],"stateMutability":"view"},{"type":"function","name":"sellTokens","inputs":[{"name":"amountIn","type":"uint256","internalType":"uint256"},{"name":"minEthOut","type":"uint256","internalType":"uint256"}],"outputs":[],"stateMutability":"nonpayable"},{"type":"function","name":"setAccessController","inputs":[{"name":"_acl","type":"address","internalType":"address"}],"outputs":[],"stateMutability":"nonpayable"},{"type":"function","name":"setFeeBps","inputs":[{"name":"_feeBps","type":"uint256","internalType":"uint256"}],"outputs":[],"stateMutability":"nonpayable"},{"type":"function","name":"setPaused","inputs":[{"name":"_p","type":"bool","internalType":"bool"}],"outputs":[],"stateMutability":"nonpayable"},{"type":"function","name":"setTreasury","inputs":[{"name":"_treasury","type":"address","internalType":"address"}],"outputs":[],"stateMutability":"nonpayable"},{"type":"function","name":"supplyOnCurve","inputs":[],"outputs":[{"name":"","type":"uint256","internalType":"uint256"}],"stateMutability":"view"},{"type":"function","name":"symbol","inputs":[],"outputs":[{"name":"","type":"string","internalType":"string"}],"stateMutability":"view"},{"type":"function","name":"totalSupply","inputs":[],"outputs":[{"name":"","type":"uint256","internalType":"uint256"}],"stateMutability":"view"},{"type":"function","name":"transfer","inputs":[{"name":"to","type":"address","internalType":"address"},{"name":"value","type":"uint256","internalType":"uint256"}],"outputs":[{"name":"","type":"bool","internalType":"bool"}],"stateMutability":"nonpayable"},{"type":"function","name":"transferFrom","inputs":[{"name":"from","type":"address","internalType":"address"},{"name":"to","type":"address","internalType":"address"},{"name":"value","type":"uint256","internalType":"uint256"}],"outputs":[{"name":"","type":"bool","internalType":"bool"}],"stateMutability":"nonpayable"},{"type":"function","name":"transferOwnership","inputs":[{"name":"newOwner","type":"address","internalType":"address"}],"outputs":[],"stateMutability":"nonpayable"},{"type":"function","name":"treasury","inputs":[],"outputs":[{"name":"","type":"address","internalType":"address"}],"stateMutability":"view"},{"type":"event","name":"AccessControllerSet","inputs":[{"name":"acl","type":"address","indexed":false,"internalType":"address"}],"anonymous":false},{"type":"event","name":"Approval","inputs":[{"name":"owner","type":"address","indexed":true,"internalType":"address"},{"name":"spender","type":"address","indexed":true,"internalType":"address"},{"name":"value","type":"uint256","indexed":false,"internalType":"uint256"}],"anonymous":false},{"type":"event","name":"Buy","inputs":[{"name":"buyer","type":"address","indexed":true,"internalType":"address"},{"name":"ethIn","type":"uint256","indexed":false,"internalType":"uint256"},{"name":"tokensOut","type":"uint256","indexed":false,"internalType":"uint256"}],"anonymous":false},{"type":"event","name":"OwnershipTransferred","inputs":[{"name":"previousOwner","type":"address","indexed":true,"internalType":"address"},{"name":"newOwner","type":"address","indexed":true,"internalType":"address"}],"anonymous":false},{"type":"event","name":"PausedSet","inputs":[{"name":"paused","type":"bool","indexed":false,"internalType":"bool"}],"anonymous":false},{"type":"event","name":"Sell","inputs":[{"name":"seller","type":"address","indexed":true,"internalType":"address"},{"name":"tokensIn","type":"uint256","indexed":false,"internalType":"uint256"},{"name":"ethOut","type":"uint256","indexed":false,"internalType":"uint256"}],"anonymous":false},{"type":"event","name":"Transfer","inputs":[{"name":"from","type":"address","indexed":true,"internalType":"address"},{"name":"to","type":"address","indexed":true,"internalType":"address"},{"name":"value","type":"uint256","indexed":false,"internalType":"uint256"}],"anonymous":false},{"type":"error","name":"ERC20InsufficientAllowance","inputs":[{"name":"spender","type":"address","internalType":"address"},{"name":"allowance","type":"uint256","internalType":"uint256"},{"name":"needed","type":"uint256","internalType":"uint256"}]},{"type":"error","name":"ERC20InsufficientBalance","inputs":[{"name":"sender","type":"address","internalType":"address"},{"name":"balance","type":"uint256","internalType":"uint256"},{"name":"needed","type":"uint256","internalType":"uint256"}]},{"type":"error","name":"ERC20InvalidApprover","inputs":[{"name":"approver","type":"address","internalType":"address"}]},{"type":"error","name":"ERC20InvalidReceiver","inputs":[{"name":"receiver","type":"address","internalType":"address"}]},{"type":"error","name":"ERC20InvalidSender","inputs":[{"name":"sender","type":"address","internalType":"address"}]},{"type":"error","name":"ERC20InvalidSpender","inputs":[{"name":"spender","type":"address","internalType":"address"}]},{"type":"error","name":"OwnableInvalidOwner","inputs":[{"name":"owner","type":"address","internalType":"address"}]},{"type":"error","name":"OwnableUnauthorizedAccount","inputs":[{"name":"account","type":"address","internalType":"address"}]},{"type":"error","name":"ReentrancyGuardReentrantCall","inputs":[]}],"bytecode":{"object":"0x60c06040523461046f576117ec8038038061001981610474565b928339810160e08282031261046f5781516001600160401b03811161046f5781610044918401610499565b602083015190916001600160401b03821161046f57610064918401610499565b90604083015160608401519161007c60808601610504565b9361008e60c060a08801519701610504565b825190926001600160401b03821161036c5760035490600182811c92168015610465575b602083101461034c5781601f8493116103f5575b50602090601f831160011461038d57600092610382575b50508160011b916000199060031b1c1916176003555b8051906001600160401b03821161036c5760045490600182811c92168015610362575b602083101461034c5781601f8493116102dc575b50602090601f831160011461027457600092610269575b50508160011b916000199060031b1c1916176004555b6001600160a01b031692831561025357600580546001600160a01b03198116861790915560405194906001600160a01b03167f8be0079c531659141344cd1fd0a4f28419497f9722a3daafe3b4186f6b6457e0600080a360016006556001600160a01b031692831561021e575060805260a052600780546001600160a01b0319169190911790556008556040516112d39081610519823960805181818161018f01528181610a6f0152610e5f015260a0518181816101b7015281816109ec0152610a490152f35b62461bcd60e51b815260206004820152601060248201526f696e76616c696420747265617375727960801b6044820152606490fd5b631e4fbdf760e01b600052600060045260246000fd5b015190503880610141565b600460009081528281209350601f198516905b8181106102c457509084600195949392106102ab575b505050811b01600455610157565b015160001960f88460031b161c1916905538808061029d565b92936020600181928786015181550195019301610287565b60046000529091507f8a35acfbc15ff81a39ae7d344fd709f28e8600b4aa8c65c6b64bfe7fe36bd19b601f840160051c81019160208510610342575b90601f859493920160051c01905b818110610333575061012a565b60008155849350600101610326565b9091508190610318565b634e487b7160e01b600052602260045260246000fd5b91607f1691610116565b634e487b7160e01b600052604160045260246000fd5b0151905038806100dd565b600360009081528281209350601f198516905b8181106103dd57509084600195949392106103c4575b505050811b016003556100f3565b015160001960f88460031b161c191690553880806103b6565b929360206001819287860151815501950193016103a0565b60036000529091507fc2575a0e9e593c00f959f8c92f12db2869c3395a3b0502d05e2516446f71f85b601f840160051c8101916020851061045b575b90601f859493920160051c01905b81811061044c57506100c6565b6000815584935060010161043f565b9091508190610431565b91607f16916100b2565b600080fd5b6040519190601f01601f191682016001600160401b0381118382101761036c57604052565b81601f8201121561046f578051906001600160401b03821161036c576104c8601f8301601f1916602001610474565b928284526020838301011161046f5760005b8281106104ef57505060206000918301015290565b806020809284010151828287010152016104da565b51906001600160a01b038216820361046f5756fe608080604052600436101561001d575b50361561001b57600080fd5b005b60003560e01c90816306fdde0314610f0857508063095ea7b314610e825780630dbe671f14610e4757806316c38b3c14610de557806318160ddd14610dc75780631f015ff014610b9e57806323b872dd14610ab157806324a9d85314610a9357806326a49e3714610a2b578063313ce56714610a0f5780634df7e3d0146109d45780635c975abb146109b157806361d027b31461098857806370a082311461094e578063715018a6146108f157806372c27b62146108985780638da5cb5b1461086f57806395d89b4114610767578063a9059cbb14610736578063c28620ac14610718578063c69b3112146106f2578063dd62ed3e146106a1578063de28735914610674578063ed9772b6146103c2578063f08391d81461030a578063f0f442601461028e578063f2fde38b146102045763f5ad797c1461015e573861000f565b346101ff5760203660031901126101ff5760206101f46004356101ef6009546101e961018a848361112f565b6101e97f0000000000000000000000000000000000000000000000000000000000000000916101e36101dd7f0000000000000000000000000000000000000000000000000000000000000000968761113c565b8461112f565b9461113c565b9061112f565b61113c565b60011c604051908152f35b600080fd5b346101ff5760203660031901126101ff5761021d61100d565b6102256111b9565b6001600160a01b0316801561027857600580546001600160a01b0319811683179091556001600160a01b03167f8be0079c531659141344cd1fd0a4f28419497f9722a3daafe3b4186f6b6457e0600080a3005b631e4fbdf760e01b600052600060045260246000fd5b346101ff5760203660031901126101ff576102a761100d565b6102af6111b9565b6001600160a01b031680156102db576bffffffffffffffffffffffff60a01b6007541617600755600080f35b60405162461bcd60e51b81526020600482015260076024820152661a5b9d985b1a5960ca1b6044820152606490fd5b346101ff5760203660031901126101ff5761032361100d565b61032b6111b9565b6001600160a01b03811690811561038f57600a8054610100600160a81b03191660089290921b610100600160a81b03169190911790556040519081527fd0761a673d8d97d3dd1e8beb78920467f6482d897a3d1a77d0749f20c653130d90602090a1005b60405162461bcd60e51b815260206004820152600b60248201526a1a5b9d985b1a59081858db60aa1b6044820152606490fd5b346101ff5760403660031901126101ff57600435600a546103e660ff821615611071565b60081c6001600160a01b031680151580610602575b61040591506110be565b61040d6111e2565b80156105d15761041c8161119c565b9061042b6024358310156110f8565b6104378160095461118f565b60095533156105bb576000913383528260205260408320548281106105a0578290338552846020520360408420558160025403600255826040518381527fddf252ad1be2c89b69c2b068fc378daa952ba7f163c4a11628f55a4df523b3ef60203392a36127106104a96008548361113c565b04838080806104b8858761118f565b335af16104c361114f565b501561056b5780849161050c575b505060405191825260208201527fed7a144fad14804d5c249145e3e0e2b63a9eb455b76aee5bc92d711e9bba3e4a60403392a2600160065580f35b600754829182918291906001600160a01b03165af161052961114f565b50156105365782846104d1565b60405162461bcd60e51b815260206004820152600d60248201526c199959481cd95b990819985a5b609a1b6044820152606490fd5b60405162461bcd60e51b815260206004820152600d60248201526c195d1a081cd95b990819985a5b609a1b6044820152606490fd5b63391434e360e21b8452336004526024526044829052606483fd5b634b637e8f60e11b600052600060045260246000fd5b60405162461bcd60e51b81526020600482015260096024820152686e6f20746f6b656e7360b81b6044820152606490fd5b506020602491604051928380926305a3b80960e01b82523360048301525afa80156106685761040591600091610639575b506103fb565b61065b915060203d602011610661575b6106538183611039565b8101906110a6565b83610633565b503d610649565b6040513d6000823e3d90fd5b346101ff5760003660031901126101ff57600a5460405160089190911c6001600160a01b03168152602090f35b346101ff5760403660031901126101ff576106ba61100d565b6106c2611023565b6001600160a01b039182166000908152600160209081526040808320949093168252928352819020549051908152f35b346101ff5760203660031901126101ff57602061071060043561119c565b604051908152f35b346101ff5760003660031901126101ff576020600954604051908152f35b346101ff5760403660031901126101ff5761075c61075261100d565b6024359033611204565b602060405160018152f35b346101ff5760003660031901126101ff5760405160006004548060011c90600181168015610865575b6020831081146108515782855290811561082d57506001146107cd575b6107c9836107bd81850382611039565b60405191829182610fc4565b0390f35b91905060046000527f8a35acfbc15ff81a39ae7d344fd709f28e8600b4aa8c65c6b64bfe7fe36bd19b916000905b808210610813575090915081016020016107bd6107ad565b9192600181602092548385880101520191019092916107fb565b60ff191660208086019190915291151560051b840190910191506107bd90506107ad565b634e487b7160e01b84526022600452602484fd5b91607f1691610790565b346101ff5760003660031901126101ff576005546040516001600160a01b039091168152602090f35b346101ff5760203660031901126101ff576004356108b46111b9565b6107d081116108c257600855005b60405162461bcd60e51b81526020600482015260076024820152666d61782032302560c81b6044820152606490fd5b346101ff5760003660031901126101ff5761090a6111b9565b600580546001600160a01b031981169091556000906001600160a01b03167f8be0079c531659141344cd1fd0a4f28419497f9722a3daafe3b4186f6b6457e08280a3005b346101ff5760203660031901126101ff576001600160a01b0361096f61100d565b1660005260006020526020604060002054604051908152f35b346101ff5760003660031901126101ff576007546040516001600160a01b039091168152602090f35b346101ff5760003660031901126101ff57602060ff600a54166040519015158152f35b346101ff5760003660031901126101ff5760206040517f00000000000000000000000000000000000000000000000000000000000000008152f35b346101ff5760003660031901126101ff57602060405160128152f35b346101ff5760203660031901126101ff576020610710610a6d6004357f000000000000000000000000000000000000000000000000000000000000000061113c565b7f000000000000000000000000000000000000000000000000000000000000000061112f565b346101ff5760003660031901126101ff576020600854604051908152f35b346101ff5760603660031901126101ff57610aca61100d565b610ad2611023565b6001600160a01b0382166000818152600160208181526040808420338552909152909120549193604435939290918101610b12575b5061075c9350611204565b838110610b81578415610b6b573315610b555761075c946000526001602052604060002060018060a01b0333166000526020528360406000209103905584610b07565b634a1406b160e11b600052600060045260246000fd5b63e602df0560e01b600052600060045260246000fd5b8390637dc7a0d960e11b6000523360045260245260445260646000fd5b60203660031901126101ff57600a54610bba60ff821615611071565b60081c6001600160a01b031680151580610d71575b610bd991506110be565b610be16111e2565b3415610d43576103e834023481046103e803610d2d57610c056004358210156110f8565b610c118160095461112f565b6009553315610d1757610c268160025461112f565b6002556000903382528160205260408220818154019055604051818152827fddf252ad1be2c89b69c2b068fc378daa952ba7f163c4a11628f55a4df523b3ef60203393a38160085480610cb0575b50506040519034825260208201527f1cbc5ab135991bd2b6a4b034a04aa2aa086dac1371cb9b16b8b5e2ed6b036bed60403392a2600160065580f35b8180612710610cc082943461113c565b600754919004906001600160a01b03165af1610cda61114f565b5015610ce7578183610c74565b60405162461bcd60e51b81526020600482015260086024820152671999594819985a5b60c21b6044820152606490fd5b63ec442f0560e01b600052600060045260246000fd5b634e487b7160e01b600052601160045260246000fd5b60405162461bcd60e51b81526020600482015260066024820152650dcde40cae8d60d31b6044820152606490fd5b506020602491604051928380926305a3b80960e01b82523360048301525afa801561066857610bd991600091610da8575b50610bcf565b610dc1915060203d602011610661576106538183611039565b82610da2565b346101ff5760003660031901126101ff576020600254604051908152f35b346101ff5760203660031901126101ff576004358015158091036101ff5760207f40db37ff5c0bdc2c427fbb2078c8f24afea940abac0e3c23bb4ea3bf2da2b21291610e2f6111b9565b60ff19600a541660ff821617600a55604051908152a1005b346101ff5760003660031901126101ff5760206040517f00000000000000000000000000000000000000000000000000000000000000008152f35b346101ff5760403660031901126101ff57610e9b61100d565b602435903315610b6b576001600160a01b0316908115610b5557336000526001602052604060002082600052602052806040600020556040519081527f8c5be1e5ebec7d5bd14f71427d1e84f3dd0314c0f7b2291e5b200ac8c7c3b92560203392a3602060405160018152f35b346101ff5760003660031901126101ff5760006003548060011c90600181168015610fba575b6020831081146108515782855290811561082d5750600114610f5a576107c9836107bd81850382611039565b91905060036000527fc2575a0e9e593c00f959f8c92f12db2869c3395a3b0502d05e2516446f71f85b916000905b808210610fa0575090915081016020016107bd6107ad565b919260018160209254838588010152019101909291610f88565b91607f1691610f2e565b91909160208152825180602083015260005b818110610ff7575060409293506000838284010152601f8019910116010190565b8060208092870101516040828601015201610fd6565b600435906001600160a01b03821682036101ff57565b602435906001600160a01b03821682036101ff57565b90601f8019910116810190811067ffffffffffffffff82111761105b57604052565b634e487b7160e01b600052604160045260246000fd5b1561107857565b60405162461bcd60e51b81526020600482015260066024820152651c185d5cd95960d21b6044820152606490fd5b908160209103126101ff575180151581036101ff5790565b156110c557565b60405162461bcd60e51b815260206004820152600b60248201526a1b9bdd08185b1b1bddd95960aa1b6044820152606490fd5b156110ff57565b60405162461bcd60e51b8152602060048201526008602482015267736c69707061676560c01b6044820152606490fd5b91908201809211610d2d57565b81810292918115918404141715610d2d57565b3d1561118a573d9067ffffffffffffffff821161105b576040519161117e601f8201601f191660200184611039565b82523d6000602084013e565b606090565b91908203918211610d2d57565b6111b3906101ef6009546101e961018a848361118f565b60011c90565b6005546001600160a01b031633036111cd57565b63118cdaa760e01b6000523360045260246000fd5b6002600654146111f3576002600655565b633ee5aeb560e01b60005260046000fd5b6001600160a01b03169081156105bb576001600160a01b0316918215610d175760008281528060205260408120548281106112835791604082827fddf252ad1be2c89b69c2b068fc378daa952ba7f163c4a11628f55a4df523b3ef958760209652828652038282205586815280845220818154019055604051908152a3565b916064928463391434e360e21b8452600452602452604452fdfea2646970667358221220964bb07b9b45f4cd11bb5f22df75b8ad8b7915e5c7ea1c1108b4e43ef70c526164736f6c634300081e0033","linkReferences":{}},"methodIdentifiers":{"a()":"0dbe671f","acl()":"de287359","allowance(address,address)":"dd62ed3e","approve(address,uint256)":"095ea7b3","b()":"4df7e3d0","balanceOf(address)":"70a08231","buyExactEth(uint256)":"1f015ff0","costToMint(uint256)":"f5ad797c","decimals()":"313ce567","feeBps()":"24a9d853","name()":"06fdde03","owner()":"8da5cb5b","paused()":"5c975abb","price(uint256)":"26a49e37","renounceOwnership()":"715018a6","rewardToBurn(uint256)":"c69b3112","sellTokens(uint256,uint256)":"ed9772b6","setAccessController(address)":"f08391d8","setFeeBps(uint256)":"72c27b62","setPaused(bool)":"16c38b3c","setTreasury(address)":"f0f44260","supplyOnCurve()":"c28620ac","symbol()":"95d89b41","totalSupply()":"18160ddd","transfer(address,uint256)":"a9059cbb","transferFrom(address,address,uint256)":"23b872dd","transferOwnership(address)":"f2fde38b","treasury()":"61d027b3"},"id":24}