{"abi":[{"type":"function","name":"deployToken","inputs":[{"name":"name","type":"string","internalType":"string"},{"name":"symbol","type":"string","internalType":"string"},{"name":"treasury","type":"address","internalType":"address"},{"name":"feeBps","type":"uint256","internalType":"uint256"}],"outputs":[{"name":"token","type":"address","internalType":"address"}],"stateMutability":"nonpayable"},{"type":"event","name":"TokenDeployed","inputs":[{"name":"token","type":"address","indexed":true,"internalType":"address"},{"name":"name","type":"string","indexed":false,"internalType":"string"},{"name":"symbol","type":"string","indexed":false,"internalType":"string"},{"name":"treasury","type":"address","indexed":false,"internalType":"address"},{"name":"feeBps","type":"uint256","indexed":false,"internalType":"uint256"}],"anonymous":false}],"bytecode":{"object":"0x6080604052348015600e575f5ffd5b5061464d8061001c5f395ff3fe608060405234801561000f575f5ffd5b5060043610610029575f3560e01c806303f806141461002d575b5f5ffd5b610047600480360381019061004291906102da565b61005d565b6040516100549190610385565b60405180910390f35b5f8484848460405161006e906100f3565b61007b949392919061040d565b604051809103905ff080158015610094573d5f5f3e3d5ffd5b5090508073ffffffffffffffffffffffffffffffffffffffff167f12ed8736edfcc014352f90edb03fcea9f7093938450245569c8e6d183391e2ea868686866040516100e3949392919061040d565b60405180910390a2949350505050565b6141b98061045f83390190565b5f604051905090565b5f5ffd5b5f5ffd5b5f5ffd5b5f5ffd5b5f601f19601f8301169050919050565b7f4e487b71000000000000000000000000000000000000000000000000000000005f52604160045260245ffd5b61015f82610119565b810181811067ffffffffffffffff8211171561017e5761017d610129565b5b80604052505050565b5f610190610100565b905061019c8282610156565b919050565b5f67ffffffffffffffff8211156101bb576101ba610129565b5b6101c482610119565b9050602081019050919050565b828183375f83830152505050565b5f6101f16101ec846101a1565b610187565b90508281526020810184848401111561020d5761020c610115565b5b6102188482856101d1565b509392505050565b5f82601f83011261023457610233610111565b5b81356102448482602086016101df565b91505092915050565b5f73ffffffffffffffffffffffffffffffffffffffff82169050919050565b5f6102768261024d565b9050919050565b6102868161026c565b8114610290575f5ffd5b50565b5f813590506102a18161027d565b92915050565b5f819050919050565b6102b9816102a7565b81146102c3575f5ffd5b50565b5f813590506102d4816102b0565b92915050565b5f5f5f5f608085870312156102f2576102f1610109565b5b5f85013567ffffffffffffffff81111561030f5761030e61010d565b5b61031b87828801610220565b945050602085013567ffffffffffffffff81111561033c5761033b61010d565b5b61034887828801610220565b935050604061035987828801610293565b925050606061036a878288016102c6565b91505092959194509250565b61037f8161026c565b82525050565b5f6020820190506103985f830184610376565b92915050565b5f81519050919050565b5f82825260208201905092915050565b8281835e5f83830152505050565b5f6103d08261039e565b6103da81856103a8565b93506103ea8185602086016103b8565b6103f381610119565b840191505092915050565b610407816102a7565b82525050565b5f6080820190508181035f83015261042581876103c6565b9050818103602083015261043981866103c6565b90506104486040830185610376565b61045560608301846103fe565b9594505050505056fe610160604052348015610010575f5ffd5b506040516141b93803806141b9833981810160405281019061003291906105c4565b3384806040518060400160405280600181526020017f31000000000000000000000000000000000000000000000000000000000000008152508787816003908161007c9190610867565b50806004908161008c9190610867565b5050506100a360058361021260201b90919060201c565b61012081815250506100bf60068261021260201b90919060201c565b6101408181525050818051906020012060e08181525050808051906020012061010081815250504660a081815250506100fc61025f60201b60201c565b608081815250503073ffffffffffffffffffffffffffffffffffffffff1660c08173ffffffffffffffffffffffffffffffffffffffff16815250505050505f73ffffffffffffffffffffffffffffffffffffffff168173ffffffffffffffffffffffffffffffffffffffff16036101aa575f6040517f1e4fbdf70000000000000000000000000000000000000000000000000000000081526004016101a19190610945565b60405180910390fd5b6101b9816102b960201b60201c565b50600160098190555081600c5f6101000a81548173ffffffffffffffffffffffffffffffffffffffff021916908373ffffffffffffffffffffffffffffffffffffffff16021790555080600b8190555050505050610ad1565b5f6020835110156102335761022c8361037c60201b60201c565b9050610259565b82610243836103e160201b60201c565b5f0190816102519190610867565b5060ff5f1b90505b92915050565b5f7f8b73c3c69bb8fe3d512ecc4cf759cc79239f7b179b0ffacaa9a75d522b39400f60e05161010051463060405160200161029e959493929190610985565b60405160208183030381529060405280519060200120905090565b5f60085f9054906101000a900473ffffffffffffffffffffffffffffffffffffffff1690508160085f6101000a81548173ffffffffffffffffffffffffffffffffffffffff021916908373ffffffffffffffffffffffffffffffffffffffff1602179055508173ffffffffffffffffffffffffffffffffffffffff168173ffffffffffffffffffffffffffffffffffffffff167f8be0079c531659141344cd1fd0a4f28419497f9722a3daafe3b4186f6b6457e060405160405180910390a35050565b5f5f829050601f815111156103c857826040517f305a27a90000000000000000000000000000000000000000000000000000000081526004016103bf9190610a1e565b60405180910390fd5b8051816103d490610a6b565b5f1c175f1b915050919050565b5f819050919050565b5f604051905090565b5f5ffd5b5f5ffd5b5f5ffd5b5f5ffd5b5f601f19601f8301169050919050565b7f4e487b71000000000000000000000000000000000000000000000000000000005f52604160045260245ffd5b61044982610403565b810181811067ffffffffffffffff8211171561046857610467610413565b5b80604052505050565b5f61047a6103ea565b90506104868282610440565b919050565b5f67ffffffffffffffff8211156104a5576104a4610413565b5b6104ae82610403565b9050602081019050919050565b8281835e5f83830152505050565b5f6104db6104d68461048b565b610471565b9050828152602081018484840111156104f7576104f66103ff565b5b6105028482856104bb565b509392505050565b5f82601f83011261051e5761051d6103fb565b5b815161052e8482602086016104c9565b91505092915050565b5f73ffffffffffffffffffffffffffffffffffffffff82169050919050565b5f61056082610537565b9050919050565b61057081610556565b811461057a575f5ffd5b50565b5f8151905061058b81610567565b92915050565b5f819050919050565b6105a381610591565b81146105ad575f5ffd5b50565b5f815190506105be8161059a565b92915050565b5f5f5f5f608085870312156105dc576105db6103f3565b5b5f85015167ffffffffffffffff8111156105f9576105f86103f7565b5b6106058782880161050a565b945050602085015167ffffffffffffffff811115610626576106256103f7565b5b6106328782880161050a565b93505060406106438782880161057d565b9250506060610654878288016105b0565b91505092959194509250565b5f81519050919050565b7f4e487b71000000000000000000000000000000000000000000000000000000005f52602260045260245ffd5b5f60028204905060018216806106ae57607f821691505b6020821081036106c1576106c061066a565b5b50919050565b5f819050815f5260205f209050919050565b5f6020601f8301049050919050565b5f82821b905092915050565b5f600883026107237fffffffffffffffffffffffffffffffffffffffffffffffffffffffffffffffff826106e8565b61072d86836106e8565b95508019841693508086168417925050509392505050565b5f819050919050565b5f61076861076361075e84610591565b610745565b610591565b9050919050565b5f819050919050565b6107818361074e565b61079561078d8261076f565b8484546106f4565b825550505050565b5f5f905090565b6107ac61079d565b6107b7818484610778565b505050565b5b818110156107da576107cf5f826107a4565b6001810190506107bd565b5050565b601f82111561081f576107f0816106c7565b6107f9846106d9565b81016020851015610808578190505b61081c610814856106d9565b8301826107bc565b50505b505050565b5f82821c905092915050565b5f61083f5f1984600802610824565b1980831691505092915050565b5f6108578383610830565b9150826002028217905092915050565b61087082610660565b67ffffffffffffffff81111561088957610888610413565b5b6108938254610697565b61089e8282856107de565b5f60209050601f8311600181146108cf575f84156108bd578287015190505b6108c7858261084c565b86555061092e565b601f1984166108dd866106c7565b5f5b82811015610904578489015182556001820191506020850194506020810190506108df565b86831015610921578489015161091d601f891682610830565b8355505b6001600288020188555050505b505050505050565b61093f81610556565b82525050565b5f6020820190506109585f830184610936565b92915050565b5f819050919050565b6109708161095e565b82525050565b61097f81610591565b82525050565b5f60a0820190506109985f830188610967565b6109a56020830187610967565b6109b26040830186610967565b6109bf6060830185610976565b6109cc6080830184610936565b9695505050505050565b5f82825260208201905092915050565b5f6109f082610660565b6109fa81856109d6565b9350610a0a8185602086016104bb565b610a1381610403565b840191505092915050565b5f6020820190508181035f830152610a3681846109e6565b905092915050565b5f81519050919050565b5f819050602082019050919050565b5f610a62825161095e565b80915050919050565b5f610a7582610a3e565b82610a7f84610a48565b9050610a8a81610a57565b92506020821015610aca57610ac57fffffffffffffffffffffffffffffffffffffffffffffffffffffffffffffffff836020036008026106e8565b831692505b5050919050565b60805160a05160c05160e051610100516101205161014051613697610b225f395f611ef001525f611eb501525f6123e901525f6123c801525f611c7101525f611cc701525f611cf001526136975ff3fe6080604052600436106101e6575f3560e01c806379cc679011610101578063c610c6a211610094578063dd62ed3e11610063578063dd62ed3e146106ef578063ed9772b61461072b578063f0f4426014610753578063f2fde38b1461077b576101ed565b8063c610c6a214610613578063c69b31121461064f578063d505accf1461068b578063d63a8e11146106b3576101ed565b806395d89b41116100d057806395d89b411461055b578063a7a6814f14610585578063a9059cbb146105ad578063c28620ac146105e9576101ed565b806379cc67901461049d5780637ecebe00146104c557806384b0196e146105015780638da5cb5b14610531576101ed565b80633644e5151161017957806361d027b31161014857806361d027b3146103f957806370a0823114610423578063715018a61461045f57806372c27b6214610475576101ed565b80633644e5151461035557806342966c681461037f5780634697f05d146103a75780635c975abb146103cf576101ed565b80631f015ff0116101b55780631f015ff0146102a957806323b872dd146102c557806324a9d85314610301578063313ce5671461032b576101ed565b806306fdde03146101f1578063095ea7b31461021b57806316c38b3c1461025757806318160ddd1461027f576101ed565b366101ed57005b5f5ffd5b3480156101fc575f5ffd5b506102056107a3565b604051610212919061289f565b60405180910390f35b348015610226575f5ffd5b50610241600480360381019061023c9190612950565b610833565b60405161024e91906129a8565b60405180910390f35b348015610262575f5ffd5b5061027d600480360381019061027891906129eb565b610855565b005b34801561028a575f5ffd5b5061029361087a565b6040516102a09190612a25565b60405180910390f35b6102c360048036038101906102be9190612a3e565b610883565b005b3480156102d0575f5ffd5b506102eb60048036038101906102e69190612a69565b610b22565b6040516102f891906129a8565b60405180910390f35b34801561030c575f5ffd5b50610315610b50565b6040516103229190612a25565b60405180910390f35b348015610336575f5ffd5b5061033f610b56565b60405161034c9190612ad4565b60405180910390f35b348015610360575f5ffd5b50610369610b5e565b6040516103769190612b05565b60405180910390f35b34801561038a575f5ffd5b506103a560048036038101906103a09190612a3e565b610b6c565b005b3480156103b2575f5ffd5b506103cd60048036038101906103c89190612b1e565b610b80565b005b3480156103da575f5ffd5b506103e3610be0565b6040516103f091906129a8565b60405180910390f35b348015610404575f5ffd5b5061040d610bf3565b60405161041a9190612b6b565b60405180910390f35b34801561042e575f5ffd5b5061044960048036038101906104449190612b84565b610c18565b6040516104569190612a25565b60405180910390f35b34801561046a575f5ffd5b50610473610c5d565b005b348015610480575f5ffd5b5061049b60048036038101906104969190612a3e565b610c70565b005b3480156104a8575f5ffd5b506104c360048036038101906104be9190612950565b610cc7565b005b3480156104d0575f5ffd5b506104eb60048036038101906104e69190612b84565b610ce7565b6040516104f89190612a25565b60405180910390f35b34801561050c575f5ffd5b50610515610cf8565b6040516105289796959493929190612ca0565b60405180910390f35b34801561053c575f5ffd5b50610545610d9d565b6040516105529190612b6b565b60405180910390f35b348015610566575f5ffd5b5061056f610dc5565b60405161057c919061289f565b60405180910390f35b348015610590575f5ffd5b506105ab60048036038101906105a69190612d5d565b610e55565b005b3480156105b8575f5ffd5b506105d360048036038101906105ce9190612950565b6111b4565b6040516105e091906129a8565b60405180910390f35b3480156105f4575f5ffd5b506105fd6111d6565b60405161060a9190612a25565b60405180910390f35b34801561061e575f5ffd5b5061063960048036038101906106349190612a3e565b6111dc565b6040516106469190612a25565b60405180910390f35b34801561065a575f5ffd5b5061067560048036038101906106709190612a3e565b6111f2565b6040516106829190612a25565b60405180910390f35b348015610696575f5ffd5b506106b160048036038101906106ac9190612e01565b611208565b005b3480156106be575f5ffd5b506106d960048036038101906106d49190612b84565b61134d565b6040516106e691906129a8565b60405180910390f35b3480156106fa575f5ffd5b5061071560048036038101906107109190612e9e565b61136a565b6040516107229190612a25565b60405180910390f35b348015610736575f5ffd5b50610751600480360381019061074c9190612edc565b6113ec565b005b34801561075e575f5ffd5b5061077960048036038101906107749190612b84565b6117c5565b005b348015610786575f5ffd5b506107a1600480360381019061079c9190612b84565b611810565b005b6060600380546107b290612f47565b80601f01602080910402602001604051908101604052809291908181526020018280546107de90612f47565b80156108295780601f1061080057610100808354040283529160200191610829565b820191905f5260205f20905b81548152906001019060200180831161080c57829003601f168201915b5050505050905090565b5f5f61083d611894565b905061084a81858561189b565b600191505092915050565b61085d6118ad565b80600c60146101000a81548160ff02191690831515021790555050565b5f600254905090565b600c60149054906101000a900460ff16156108d3576040517f08c379a00000000000000000000000000000000000000000000000000000000081526004016108ca90612fc1565b60405180910390fd5b600d5f3373ffffffffffffffffffffffffffffffffffffffff1673ffffffffffffffffffffffffffffffffffffffff1681526020019081526020015f205f9054906101000a900460ff168061095a575061092b610d9d565b73ffffffffffffffffffffffffffffffffffffffff163373ffffffffffffffffffffffffffffffffffffffff16145b610999576040517f08c379a000000000000000000000000000000000000000000000000000000000815260040161099090613029565b60405180910390fd5b6109a1611934565b5f34116109e3576040517f08c379a00000000000000000000000000000000000000000000000000000000081526004016109da90613091565b60405180910390fd5b5f6109ed346111dc565b905081811015610a32576040517f08c379a0000000000000000000000000000000000000000000000000000000008152600401610a29906130f9565b60405180910390fd5b80600a5f828254610a439190613144565b92505081905550610a54338261197a565b5f612710600b5434610a669190613177565b610a7091906131e5565b90505f811115610ac557610ac481600c5f9054906101000a900473ffffffffffffffffffffffffffffffffffffffff1673ffffffffffffffffffffffffffffffffffffffff166119f990919063ffffffff16565b5b3373ffffffffffffffffffffffffffffffffffffffff167f1cbc5ab135991bd2b6a4b034a04aa2aa086dac1371cb9b16b8b5e2ed6b036bed3484604051610b0d929190613215565b60405180910390a25050610b1f611ae2565b50565b5f5f610b2c611894565b9050610b39858285611aec565b610b44858585611b7e565b60019150509392505050565b600b5481565b5f6012905090565b5f610b67611c6e565b905090565b610b7d610b77611894565b82611d24565b50565b610b886118ad565b80600d5f8473ffffffffffffffffffffffffffffffffffffffff1673ffffffffffffffffffffffffffffffffffffffff1681526020019081526020015f205f6101000a81548160ff0219169083151502179055505050565b600c60149054906101000a900460ff1681565b600c5f9054906101000a900473ffffffffffffffffffffffffffffffffffffffff1681565b5f5f5f8373ffffffffffffffffffffffffffffffffffffffff1673ffffffffffffffffffffffffffffffffffffffff1681526020019081526020015f20549050919050565b610c656118ad565b610c6e5f611da3565b565b610c786118ad565b6103e8811115610cbd576040517f08c379a0000000000000000000000000000000000000000000000000000000008152600401610cb490613286565b60405180910390fd5b80600b8190555050565b610cd982610cd3611894565b83611aec565b610ce38282611d24565b5050565b5f610cf182611e66565b9050919050565b5f6060805f5f5f6060610d09611eac565b610d11611ee7565b46305f5f1b5f67ffffffffffffffff811115610d3057610d2f6132a4565b5b604051908082528060200260200182016040528015610d5e5781602001602082028036833780820191505090505b507f0f00000000000000000000000000000000000000000000000000000000000000959493929190965096509650965096509650965090919293949596565b5f60085f9054906101000a900473ffffffffffffffffffffffffffffffffffffffff16905090565b606060048054610dd490612f47565b80601f0160208091040260200160405190810160405280929190818152602001828054610e0090612f47565b8015610e4b5780601f10610e2257610100808354040283529160200191610e4b565b820191905f5260205f20905b815481529060010190602001808311610e2e57829003601f168201915b5050505050905090565b600c60149054906101000a900460ff1615610ea5576040517f08c379a0000000000000000000000000000000000000000000000000000000008152600401610e9c90612fc1565b60405180910390fd5b600d5f3373ffffffffffffffffffffffffffffffffffffffff1673ffffffffffffffffffffffffffffffffffffffff1681526020019081526020015f205f9054906101000a900460ff1680610f2c5750610efd610d9d565b73ffffffffffffffffffffffffffffffffffffffff163373ffffffffffffffffffffffffffffffffffffffff16145b610f6b576040517f08c379a0000000000000000000000000000000000000000000000000000000008152600401610f6290613029565b60405180910390fd5b610f73611934565b5f8311610fb5576040517f08c379a0000000000000000000000000000000000000000000000000000000008152600401610fac9061331b565b60405180910390fd5b5f73ffffffffffffffffffffffffffffffffffffffff168173ffffffffffffffffffffffffffffffffffffffff1603611023576040517f08c379a000000000000000000000000000000000000000000000000000000000815260040161101a90613383565b60405180910390fd5b5f61102d846111f2565b905082811015611072576040517f08c379a0000000000000000000000000000000000000000000000000000000008152600401611069906130f9565b60405180910390fd5b83600a5f82825461108391906133a1565b925050819055506110943385611d24565b5f612710600b54836110a69190613177565b6110b091906131e5565b90505f81836110bf91906133a1565b90506110ea818573ffffffffffffffffffffffffffffffffffffffff166119f990919063ffffffff16565b5f82111561113d5761113c82600c5f9054906101000a900473ffffffffffffffffffffffffffffffffffffffff1673ffffffffffffffffffffffffffffffffffffffff166119f990919063ffffffff16565b5b8373ffffffffffffffffffffffffffffffffffffffff163373ffffffffffffffffffffffffffffffffffffffff167f4792c192fe49cc498dca0889e4772ff37c3d9c9005b1af96b4d226eae2920067888660405161119c929190613215565b60405180910390a35050506111af611ae2565b505050565b5f5f6111be611894565b90506111cb818585611b7e565b600191505092915050565b600a5481565b5f6103e8826111eb9190613177565b9050919050565b5f6103e88261120191906131e5565b9050919050565b8342111561124d57836040517f627913020000000000000000000000000000000000000000000000000000000081526004016112449190612a25565b60405180910390fd5b5f7f6e71edae12b1b97f4d1f60370fef10105fa2faae0126114a169c64845d6126c988888861127b8c611f22565b89604051602001611291969594939291906133d4565b6040516020818303038152906040528051906020012090505f6112b382611f75565b90505f6112c282878787611f8e565b90508973ffffffffffffffffffffffffffffffffffffffff168173ffffffffffffffffffffffffffffffffffffffff161461133657808a6040517f4b800e4600000000000000000000000000000000000000000000000000000000815260040161132d929190613433565b60405180910390fd5b6113418a8a8a61189b565b50505050505050505050565b600d602052805f5260405f205f915054906101000a900460ff1681565b5f60015f8473ffffffffffffffffffffffffffffffffffffffff1673ffffffffffffffffffffffffffffffffffffffff1681526020019081526020015f205f8373ffffffffffffffffffffffffffffffffffffffff1673ffffffffffffffffffffffffffffffffffffffff1681526020019081526020015f2054905092915050565b600c60149054906101000a900460ff161561143c576040517f08c379a000000000000000000000000000000000000000000000000000000000815260040161143390612fc1565b60405180910390fd5b600d5f3373ffffffffffffffffffffffffffffffffffffffff1673ffffffffffffffffffffffffffffffffffffffff1681526020019081526020015f205f9054906101000a900460ff16806114c35750611494610d9d565b73ffffffffffffffffffffffffffffffffffffffff163373ffffffffffffffffffffffffffffffffffffffff16145b611502576040517f08c379a00000000000000000000000000000000000000000000000000000000081526004016114f990613029565b60405180910390fd5b61150a611934565b5f821161154c576040517f08c379a00000000000000000000000000000000000000000000000000000000081526004016115439061331b565b60405180910390fd5b5f611556836111f2565b90508181101561159b576040517f08c379a0000000000000000000000000000000000000000000000000000000008152600401611592906130f9565b60405180910390fd5b82600a5f8282546115ac91906133a1565b925050819055506115bd3384611d24565b5f612710600b54836115cf9190613177565b6115d991906131e5565b90505f81836115e891906133a1565b90505f3373ffffffffffffffffffffffffffffffffffffffff168260405161160f90613487565b5f6040518083038185875af1925050503d805f8114611649576040519150601f19603f3d011682016040523d82523d5f602084013e61164e565b606091505b5050905080611692576040517f08c379a0000000000000000000000000000000000000000000000000000000008152600401611689906134e5565b60405180910390fd5b5f831115611765575f600c5f9054906101000a900473ffffffffffffffffffffffffffffffffffffffff1673ffffffffffffffffffffffffffffffffffffffff16846040516116e090613487565b5f6040518083038185875af1925050503d805f811461171a576040519150601f19603f3d011682016040523d82523d5f602084013e61171f565b606091505b5050905080611763576040517f08c379a000000000000000000000000000000000000000000000000000000000815260040161175a9061354d565b60405180910390fd5b505b3373ffffffffffffffffffffffffffffffffffffffff167fed7a144fad14804d5c249145e3e0e2b63a9eb455b76aee5bc92d711e9bba3e4a87866040516117ad929190613215565b60405180910390a2505050506117c1611ae2565b5050565b6117cd6118ad565b80600c5f6101000a81548173ffffffffffffffffffffffffffffffffffffffff021916908373ffffffffffffffffffffffffffffffffffffffff16021790555050565b6118186118ad565b5f73ffffffffffffffffffffffffffffffffffffffff168173ffffffffffffffffffffffffffffffffffffffff1603611888575f6040517f1e4fbdf700000000000000000000000000000000000000000000000000000000815260040161187f9190612b6b565b60405180910390fd5b61189181611da3565b50565b5f33905090565b6118a88383836001611fbc565b505050565b6118b5611894565b73ffffffffffffffffffffffffffffffffffffffff166118d3610d9d565b73ffffffffffffffffffffffffffffffffffffffff1614611932576118f6611894565b6040517f118cdaa70000000000000000000000000000000000000000000000000000000081526004016119299190612b6b565b60405180910390fd5b565b600260095403611970576040517f3ee5aeb500000000000000000000000000000000000000000000000000000000815260040160405180910390fd5b6002600981905550565b5f73ffffffffffffffffffffffffffffffffffffffff168273ffffffffffffffffffffffffffffffffffffffff16036119ea575f6040517fec442f050000000000000000000000000000000000000000000000000000000081526004016119e19190612b6b565b60405180910390fd5b6119f55f838361218b565b5050565b80471015611a3e57306040517fcd786059000000000000000000000000000000000000000000000000000000008152600401611a359190612b6b565b60405180910390fd5b5f8273ffffffffffffffffffffffffffffffffffffffff1682604051611a6390613487565b5f6040518083038185875af1925050503d805f8114611a9d576040519150601f19603f3d011682016040523d82523d5f602084013e611aa2565b606091505b5050905080611add576040517f1425ea4200000000000000000000000000000000000000000000000000000000815260040160405180910390fd5b505050565b6001600981905550565b5f611af7848461136a565b90507fffffffffffffffffffffffffffffffffffffffffffffffffffffffffffffffff8114611b785781811015611b69578281836040517ffb8f41b2000000000000000000000000000000000000000000000000000000008152600401611b609392919061356b565b60405180910390fd5b611b7784848484035f611fbc565b5b50505050565b5f73ffffffffffffffffffffffffffffffffffffffff168373ffffffffffffffffffffffffffffffffffffffff1603611bee575f6040517f96c6fd1e000000000000000000000000000000000000000000000000000000008152600401611be59190612b6b565b60405180910390fd5b5f73ffffffffffffffffffffffffffffffffffffffff168273ffffffffffffffffffffffffffffffffffffffff1603611c5e575f6040517fec442f05000000000000000000000000000000000000000000000000000000008152600401611c559190612b6b565b60405180910390fd5b611c6983838361218b565b505050565b5f7f000000000000000000000000000000000000000000000000000000000000000073ffffffffffffffffffffffffffffffffffffffff163073ffffffffffffffffffffffffffffffffffffffff16148015611ce957507f000000000000000000000000000000000000000000000000000000000000000046145b15611d16577f00000000000000000000000000000000000000000000000000000000000000009050611d21565b611d1e6123a4565b90505b90565b5f73ffffffffffffffffffffffffffffffffffffffff168273ffffffffffffffffffffffffffffffffffffffff1603611d94575f6040517f96c6fd1e000000000000000000000000000000000000000000000000000000008152600401611d8b9190612b6b565b60405180910390fd5b611d9f825f8361218b565b5050565b5f60085f9054906101000a900473ffffffffffffffffffffffffffffffffffffffff1690508160085f6101000a81548173ffffffffffffffffffffffffffffffffffffffff021916908373ffffffffffffffffffffffffffffffffffffffff1602179055508173ffffffffffffffffffffffffffffffffffffffff168173ffffffffffffffffffffffffffffffffffffffff167f8be0079c531659141344cd1fd0a4f28419497f9722a3daafe3b4186f6b6457e060405160405180910390a35050565b5f60075f8373ffffffffffffffffffffffffffffffffffffffff1673ffffffffffffffffffffffffffffffffffffffff1681526020019081526020015f20549050919050565b6060611ee260057f000000000000000000000000000000000000000000000000000000000000000061243990919063ffffffff16565b905090565b6060611f1d60067f000000000000000000000000000000000000000000000000000000000000000061243990919063ffffffff16565b905090565b5f60075f8373ffffffffffffffffffffffffffffffffffffffff1673ffffffffffffffffffffffffffffffffffffffff1681526020019081526020015f205f815480929190600101919050559050919050565b5f611f87611f81611c6e565b836124e6565b9050919050565b5f5f5f5f611f9e88888888612526565b925092509250611fae828261260d565b829350505050949350505050565b5f73ffffffffffffffffffffffffffffffffffffffff168473ffffffffffffffffffffffffffffffffffffffff160361202c575f6040517fe602df050000000000000000000000000000000000000000000000000000000081526004016120239190612b6b565b60405180910390fd5b5f73ffffffffffffffffffffffffffffffffffffffff168373ffffffffffffffffffffffffffffffffffffffff160361209c575f6040517f94280d620000000000000000000000000000000000000000000000000000000081526004016120939190612b6b565b60405180910390fd5b8160015f8673ffffffffffffffffffffffffffffffffffffffff1673ffffffffffffffffffffffffffffffffffffffff1681526020019081526020015f205f8573ffffffffffffffffffffffffffffffffffffffff1673ffffffffffffffffffffffffffffffffffffffff1681526020019081526020015f20819055508015612185578273ffffffffffffffffffffffffffffffffffffffff168473ffffffffffffffffffffffffffffffffffffffff167f8c5be1e5ebec7d5bd14f71427d1e84f3dd0314c0f7b2291e5b200ac8c7c3b9258460405161217c9190612a25565b60405180910390a35b50505050565b5f73ffffffffffffffffffffffffffffffffffffffff168373ffffffffffffffffffffffffffffffffffffffff16036121db578060025f8282546121cf9190613144565b925050819055506122a9565b5f5f5f8573ffffffffffffffffffffffffffffffffffffffff1673ffffffffffffffffffffffffffffffffffffffff1681526020019081526020015f2054905081811015612264578381836040517fe450d38c00000000000000000000000000000000000000000000000000000000815260040161225b9392919061356b565b60405180910390fd5b8181035f5f8673ffffffffffffffffffffffffffffffffffffffff1673ffffffffffffffffffffffffffffffffffffffff1681526020019081526020015f2081905550505b5f73ffffffffffffffffffffffffffffffffffffffff168273ffffffffffffffffffffffffffffffffffffffff16036122f0578060025f828254039250508190555061233a565b805f5f8473ffffffffffffffffffffffffffffffffffffffff1673ffffffffffffffffffffffffffffffffffffffff1681526020019081526020015f205f82825401925050819055505b8173ffffffffffffffffffffffffffffffffffffffff168373ffffffffffffffffffffffffffffffffffffffff167fddf252ad1be2c89b69c2b068fc378daa952ba7f163c4a11628f55a4df523b3ef836040516123979190612a25565b60405180910390a3505050565b5f7f8b73c3c69bb8fe3d512ecc4cf759cc79239f7b179b0ffacaa9a75d522b39400f7f00000000000000000000000000000000000000000000000000000000000000007f0000000000000000000000000000000000000000000000000000000000000000463060405160200161241e9594939291906135a0565b60405160208183030381529060405280519060200120905090565b606060ff5f1b83146124555761244e8361276f565b90506124e0565b81805461246190612f47565b80601f016020809104026020016040519081016040528092919081815260200182805461248d90612f47565b80156124d85780601f106124af576101008083540402835291602001916124d8565b820191905f5260205f20905b8154815290600101906020018083116124bb57829003601f168201915b505050505090505b92915050565b5f6040517f190100000000000000000000000000000000000000000000000000000000000081528360028201528260228201526042812091505092915050565b5f5f5f7f7fffffffffffffffffffffffffffffff5d576e7357a4501ddfe92f46681b20a0845f1c1115612562575f600385925092509250612603565b5f6001888888886040515f815260200160405260405161258594939291906135f1565b6020604051602081039080840390855afa1580156125a5573d5f5f3e3d5ffd5b5050506020604051035190505f73ffffffffffffffffffffffffffffffffffffffff168173ffffffffffffffffffffffffffffffffffffffff16036125f6575f60015f5f1b93509350935050612603565b805f5f5f1b935093509350505b9450945094915050565b5f60038111156126205761261f613634565b5b82600381111561263357612632613634565b5b031561276b576001600381111561264d5761264c613634565b5b8260038111156126605761265f613634565b5b03612697576040517ff645eedf00000000000000000000000000000000000000000000000000000000815260040160405180910390fd5b600260038111156126ab576126aa613634565b5b8260038111156126be576126bd613634565b5b0361270257805f1c6040517ffce698f70000000000000000000000000000000000000000000000000000000081526004016126f99190612a25565b60405180910390fd5b60038081111561271557612714613634565b5b82600381111561272857612727613634565b5b0361276a57806040517fd78bce0c0000000000000000000000000000000000000000000000000000000081526004016127619190612b05565b60405180910390fd5b5b5050565b60605f61277b836127e1565b90505f602067ffffffffffffffff811115612799576127986132a4565b5b6040519080825280601f01601f1916602001820160405280156127cb5781602001600182028036833780820191505090505b5090508181528360208201528092505050919050565b5f5f60ff835f1c169050601f811115612826576040517fb3512b0c00000000000000000000000000000000000000000000000000000000815260040160405180910390fd5b80915050919050565b5f81519050919050565b5f82825260208201905092915050565b8281835e5f83830152505050565b5f601f19601f8301169050919050565b5f6128718261282f565b61287b8185612839565b935061288b818560208601612849565b61289481612857565b840191505092915050565b5f6020820190508181035f8301526128b78184612867565b905092915050565b5f5ffd5b5f73ffffffffffffffffffffffffffffffffffffffff82169050919050565b5f6128ec826128c3565b9050919050565b6128fc816128e2565b8114612906575f5ffd5b50565b5f81359050612917816128f3565b92915050565b5f819050919050565b61292f8161291d565b8114612939575f5ffd5b50565b5f8135905061294a81612926565b92915050565b5f5f60408385031215612966576129656128bf565b5b5f61297385828601612909565b92505060206129848582860161293c565b9150509250929050565b5f8115159050919050565b6129a28161298e565b82525050565b5f6020820190506129bb5f830184612999565b92915050565b6129ca8161298e565b81146129d4575f5ffd5b50565b5f813590506129e5816129c1565b92915050565b5f60208284031215612a00576129ff6128bf565b5b5f612a0d848285016129d7565b91505092915050565b612a1f8161291d565b82525050565b5f602082019050612a385f830184612a16565b92915050565b5f60208284031215612a5357612a526128bf565b5b5f612a608482850161293c565b91505092915050565b5f5f5f60608486031215612a8057612a7f6128bf565b5b5f612a8d86828701612909565b9350506020612a9e86828701612909565b9250506040612aaf8682870161293c565b9150509250925092565b5f60ff82169050919050565b612ace81612ab9565b82525050565b5f602082019050612ae75f830184612ac5565b92915050565b5f819050919050565b612aff81612aed565b82525050565b5f602082019050612b185f830184612af6565b92915050565b5f5f60408385031215612b3457612b336128bf565b5b5f612b4185828601612909565b9250506020612b52858286016129d7565b9150509250929050565b612b65816128e2565b82525050565b5f602082019050612b7e5f830184612b5c565b92915050565b5f60208284031215612b9957612b986128bf565b5b5f612ba684828501612909565b91505092915050565b5f7fff0000000000000000000000000000000000000000000000000000000000000082169050919050565b612be381612baf565b82525050565b5f81519050919050565b5f82825260208201905092915050565b5f819050602082019050919050565b612c1b8161291d565b82525050565b5f612c2c8383612c12565b60208301905092915050565b5f602082019050919050565b5f612c4e82612be9565b612c588185612bf3565b9350612c6383612c03565b805f5b83811015612c93578151612c7a8882612c21565b9750612c8583612c38565b925050600181019050612c66565b5085935050505092915050565b5f60e082019050612cb35f83018a612bda565b8181036020830152612cc58189612867565b90508181036040830152612cd98188612867565b9050612ce86060830187612a16565b612cf56080830186612b5c565b612d0260a0830185612af6565b81810360c0830152612d148184612c44565b905098975050505050505050565b5f612d2c826128c3565b9050919050565b612d3c81612d22565b8114612d46575f5ffd5b50565b5f81359050612d5781612d33565b92915050565b5f5f5f60608486031215612d7457612d736128bf565b5b5f612d818682870161293c565b9350506020612d928682870161293c565b9250506040612da386828701612d49565b9150509250925092565b612db681612ab9565b8114612dc0575f5ffd5b50565b5f81359050612dd181612dad565b92915050565b612de081612aed565b8114612dea575f5ffd5b50565b5f81359050612dfb81612dd7565b92915050565b5f5f5f5f5f5f5f60e0888a031215612e1c57612e1b6128bf565b5b5f612e298a828b01612909565b9750506020612e3a8a828b01612909565b9650506040612e4b8a828b0161293c565b9550506060612e5c8a828b0161293c565b9450506080612e6d8a828b01612dc3565b93505060a0612e7e8a828b01612ded565b92505060c0612e8f8a828b01612ded565b91505092959891949750929550565b5f5f60408385031215612eb457612eb36128bf565b5b5f612ec185828601612909565b9250506020612ed285828601612909565b9150509250929050565b5f5f60408385031215612ef257612ef16128bf565b5b5f612eff8582860161293c565b9250506020612f108582860161293c565b9150509250929050565b7f4e487b71000000000000000000000000000000000000000000000000000000005f52602260045260245ffd5b5f6002820490506001821680612f5e57607f821691505b602082108103612f7157612f70612f1a565b5b50919050565b7f70617573656400000000000000000000000000000000000000000000000000005f82015250565b5f612fab600683612839565b9150612fb682612f77565b602082019050919050565b5f6020820190508181035f830152612fd881612f9f565b9050919050565b7f6e6f7420616c6c6f7765640000000000000000000000000000000000000000005f82015250565b5f613013600b83612839565b915061301e82612fdf565b602082019050919050565b5f6020820190508181035f83015261304081613007565b9050919050565b7f6e6f2065746800000000000000000000000000000000000000000000000000005f82015250565b5f61307b600683612839565b915061308682613047565b602082019050919050565b5f6020820190508181035f8301526130a88161306f565b9050919050565b7f736c6970706167650000000000000000000000000000000000000000000000005f82015250565b5f6130e3600883612839565b91506130ee826130af565b602082019050919050565b5f6020820190508181035f830152613110816130d7565b9050919050565b7f4e487b71000000000000000000000000000000000000000000000000000000005f52601160045260245ffd5b5f61314e8261291d565b91506131598361291d565b925082820190508082111561317157613170613117565b5b92915050565b5f6131818261291d565b915061318c8361291d565b925082820261319a8161291d565b915082820484148315176131b1576131b0613117565b5b5092915050565b7f4e487b71000000000000000000000000000000000000000000000000000000005f52601260045260245ffd5b5f6131ef8261291d565b91506131fa8361291d565b92508261320a576132096131b8565b5b828204905092915050565b5f6040820190506132285f830185612a16565b6132356020830184612a16565b9392505050565b7f66656520746f6f206869676800000000000000000000000000000000000000005f82015250565b5f613270600c83612839565b915061327b8261323c565b602082019050919050565b5f6020820190508181035f83015261329d81613264565b9050919050565b7f4e487b71000000000000000000000000000000000000000000000000000000005f52604160045260245ffd5b7f6e6f20746f6b656e7300000000000000000000000000000000000000000000005f82015250565b5f613305600983612839565b9150613310826132d1565b602082019050919050565b5f6020820190508181035f830152613332816132f9565b9050919050565b7f62616420726563697069656e74000000000000000000000000000000000000005f82015250565b5f61336d600d83612839565b915061337882613339565b602082019050919050565b5f6020820190508181035f83015261339a81613361565b9050919050565b5f6133ab8261291d565b91506133b68361291d565b92508282039050818111156133ce576133cd613117565b5b92915050565b5f60c0820190506133e75f830189612af6565b6133f46020830188612b5c565b6134016040830187612b5c565b61340e6060830186612a16565b61341b6080830185612a16565b61342860a0830184612a16565b979650505050505050565b5f6040820190506134465f830185612b5c565b6134536020830184612b5c565b9392505050565b5f81905092915050565b50565b5f6134725f8361345a565b915061347d82613464565b5f82019050919050565b5f61349182613467565b9150819050919050565b7f6574682073656e64206661696c000000000000000000000000000000000000005f82015250565b5f6134cf600d83612839565b91506134da8261349b565b602082019050919050565b5f6020820190508181035f8301526134fc816134c3565b9050919050565b7f6665652073656e64206661696c000000000000000000000000000000000000005f82015250565b5f613537600d83612839565b915061354282613503565b602082019050919050565b5f6020820190508181035f8301526135648161352b565b9050919050565b5f60608201905061357e5f830186612b5c565b61358b6020830185612a16565b6135986040830184612a16565b949350505050565b5f60a0820190506135b35f830188612af6565b6135c06020830187612af6565b6135cd6040830186612af6565b6135da6060830185612a16565b6135e76080830184612b5c565b9695505050505050565b5f6080820190506136045f830187612af6565b6136116020830186612ac5565b61361e6040830185612af6565b61362b6060830184612af6565b95945050505050565b7f4e487b71000000000000000000000000000000000000000000000000000000005f52602160045260245ffdfea264697066735822122005a7cd09b9ccb8a1ff8f4411f6e899e79faaa46e14912441f74dbca5c0c80e0b64736f6c634300081e0033a2646970667358221220d64b3c9195cb760023b557f8e98f4ace925f66d2aae7962cbfe9af2628f5a42864736f6c634300081e0033","linkReferences":{}},"methodIdentifiers":{"deployToken(string,string,address,uint256)":"03f80614"},"id":45}