{"abi":[{"type":"constructor","inputs":[{"name":"initialOwner","type":"address","internalType":"address"}],"stateMutability":"nonpayable"},{"type":"function","name":"addPoints","inputs":[{"name":"user","type":"address","internalType":"address"},{"name":"amount","type":"uint256","internalType":"uint256"}],"outputs":[],"stateMutability":"nonpayable"},{"type":"function","name":"owner","inputs":[],"outputs":[{"name":"","type":"address","internalType":"address"}],"stateMutability":"view"},{"type":"function","name":"points","inputs":[{"name":"","type":"address","internalType":"address"}],"outputs":[{"name":"","type":"uint256","internalType":"uint256"}],"stateMutability":"view"},{"type":"function","name":"renounceOwnership","inputs":[],"outputs":[],"stateMutability":"nonpayable"},{"type":"function","name":"setPoints","inputs":[{"name":"user","type":"address","internalType":"address"},{"name":"amount","type":"uint256","internalType":"uint256"}],"outputs":[],"stateMutability":"nonpayable"},{"type":"function","name":"transferOwnership","inputs":[{"name":"newOwner","type":"address","internalType":"address"}],"outputs":[],"stateMutability":"nonpayable"},{"type":"event","name":"OwnershipTransferred","inputs":[{"name":"previousOwner","type":"address","indexed":true,"internalType":"address"},{"name":"newOwner","type":"address","indexed":true,"internalType":"address"}],"anonymous":false},{"type":"event","name":"PointsAdded","inputs":[{"name":"user","type":"address","indexed":true,"internalType":"address"},{"name":"amount","type":"uint256","indexed":false,"internalType":"uint256"}],"anonymous":false},{"type":"event","name":"PointsSet","inputs":[{"name":"user","type":"address","indexed":true,"internalType":"address"},{"name":"amount","type":"uint256","indexed":false,"internalType":"uint256"}],"anonymous":false},{"type":"error","name":"OwnableInvalidOwner","inputs":[{"name":"owner","type":"address","internalType":"address"}]},{"type":"error","name":"OwnableUnauthorizedAccount","inputs":[{"name":"account","type":"address","internalType":"address"}]}],"bytecode":{"object":"0x60803460bc57601f6103ee38819003918201601f19168301916001600160401b0383118484101760c15780849260209460405283398101031260bc57516001600160a01b0381169081900360bc57801560a657600080546001600160a01b031981168317825560405192916001600160a01b03909116907f8be0079c531659141344cd1fd0a4f28419497f9722a3daafe3b4186f6b6457e09080a361031690816100d88239f35b631e4fbdf760e01b600052600060045260246000fd5b600080fd5b634e487b7160e01b600052604160045260246000fdfe608080604052600436101561001357600080fd5b60003560e01c908163358b81661461026b575080633bc007a814610200578063507cd30f14610171578063715018a6146101185780638da5cb5b146100ef5763f2fde38b1461006157600080fd5b346100ea5760203660031901126100ea5761007a6102a1565b6100826102b7565b6001600160a01b031680156100d457600080546001600160a01b03198116831782556001600160a01b0316907f8be0079c531659141344cd1fd0a4f28419497f9722a3daafe3b4186f6b6457e09080a3005b631e4fbdf760e01b600052600060045260246000fd5b600080fd5b346100ea5760003660031901126100ea576000546040516001600160a01b039091168152602090f35b346100ea5760003660031901126100ea576101316102b7565b600080546001600160a01b0319811682556001600160a01b03167f8be0079c531659141344cd1fd0a4f28419497f9722a3daafe3b4186f6b6457e08280a3005b346100ea5760403660031901126100ea5761018a6102a1565b602435906101966102b7565b6001600160a01b03166000818152600160205260409020805491928281019283106101ea577f0fe6fcb45adaaa54f7e3491f6a7964049817f1e437f33587e634a4629fbcf3a69260209255604051908152a2005b634e487b7160e01b600052601160045260246000fd5b346100ea5760403660031901126100ea576102196102a1565b7f259df9d652a361219319531e4a2ee3bde48700f85da495c317235fa3d1d0b6656020602435926102486102b7565b6001600160a01b03166000818152600183526040908190208590555193845292a2005b346100ea5760203660031901126100ea576020906001600160a01b0361028f6102a1565b16600052600182526040600020548152f35b600435906001600160a01b03821682036100ea57565b6000546001600160a01b031633036102cb57565b63118cdaa760e01b6000523360045260246000fdfea26469706673582212207b5a930f03da00a730a0ce333254e7387d3e550e4e2d89f954db74de97a4fc7264736f6c634300081e0033","linkReferences":{}},"methodIdentifiers":{"addPoints(address,uint256)":"507cd30f","owner()":"8da5cb5b","points(address)":"358b8166","renounceOwnership()":"715018a6","setPoints(address,uint256)":"3bc007a8","transferOwnership(address)":"f2fde38b"},"id":25}