{"abi":[{"type":"constructor","inputs":[{"name":"initialOwner","type":"address","internalType":"address"},{"name":"factoryAddress","type":"address","internalType":"address"}],"stateMutability":"nonpayable"},{"type":"function","name":"createSongToken","inputs":[{"name":"name","type":"string","internalType":"string"},{"name":"symbol","type":"string","internalType":"string"},{"name":"treasury","type":"address","internalType":"address"},{"name":"feeBps","type":"uint256","internalType":"uint256"}],"outputs":[{"name":"","type":"uint256","internalType":"uint256"},{"name":"","type":"address","internalType":"address"},{"name":"","type":"address","internalType":"address"},{"name":"","type":"address","internalType":"address"}],"stateMutability":"nonpayable"},{"type":"function","name":"factory","inputs":[],"outputs":[{"name":"","type":"address","internalType":"contract BondingCurveFactory"}],"stateMutability":"view"},{"type":"function","name":"forwardAllowlist","inputs":[{"name":"acl","type":"address","internalType":"address"},{"name":"addrs","type":"address[]","internalType":"address[]"},{"name":"allow","type":"bool","internalType":"bool"}],"outputs":[],"stateMutability":"nonpayable"},{"type":"function","name":"forwardSetPhase","inputs":[{"name":"acl","type":"address","internalType":"address"},{"name":"phase","type":"uint8","internalType":"uint8"}],"outputs":[],"stateMutability":"nonpayable"},{"type":"function","name":"forwardTransferAclOwnership","inputs":[{"name":"acl","type":"address","internalType":"address"},{"name":"newOwner","type":"address","internalType":"address"}],"outputs":[],"stateMutability":"nonpayable"},{"type":"function","name":"getTokens","inputs":[],"outputs":[{"name":"","type":"tuple[]","internalType":"struct SongTokenRegistry.SongToken[]","components":[{"name":"acl","type":"address","internalType":"address"},{"name":"points","type":"address","internalType":"address"},{"name":"token","type":"address","internalType":"address"},{"name":"name","type":"string","internalType":"string"},{"name":"symbol","type":"string","internalType":"string"}]}],"stateMutability":"view"},{"type":"function","name":"owner","inputs":[],"outputs":[{"name":"","type":"address","internalType":"address"}],"stateMutability":"view"},{"type":"function","name":"renounceOwnership","inputs":[],"outputs":[],"stateMutability":"nonpayable"},{"type":"function","name":"tokens","inputs":[{"name":"","type":"uint256","internalType":"uint256"}],"outputs":[{"name":"acl","type":"address","internalType":"address"},{"name":"points","type":"address","internalType":"address"},{"name":"token","type":"address","internalType":"address"},{"name":"name","type":"string","internalType":"string"},{"name":"symbol","type":"string","internalType":"string"}],"stateMutability":"view"},{"type":"function","name":"transferOwnership","inputs":[{"name":"newOwner","type":"address","internalType":"address"}],"outputs":[],"stateMutability":"nonpayable"},{"type":"event","name":"OwnershipTransferred","inputs":[{"name":"previousOwner","type":"address","indexed":true,"internalType":"address"},{"name":"newOwner","type":"address","indexed":true,"internalType":"address"}],"anonymous":false},{"type":"event","name":"SongTokenCreated","inputs":[{"name":"index","type":"uint256","indexed":true,"internalType":"uint256"},{"name":"acl","type":"address","indexed":false,"internalType":"address"},{"name":"points","type":"address","indexed":false,"internalType":"address"},{"name":"token","type":"address","indexed":false,"internalType":"address"},{"name":"name","type":"string","indexed":false,"internalType":"string"},{"name":"symbol","type":"string","indexed":false,"internalType":"string"}],"anonymous":false},{"type":"error","name":"OwnableInvalidOwner","inputs":[{"name":"owner","type":"address","internalType":"address"}]},{"type":"error","name":"OwnableUnauthorizedAccount","inputs":[{"name":"account","type":"address","internalType":"address"}]}],"bytecode":{"object":"0x60a060405234801561000f575f5ffd5b50604051613bf6380380613bf68339818101604052810190610031919061027a565b815f73ffffffffffffffffffffffffffffffffffffffff168173ffffffffffffffffffffffffffffffffffffffff16036100a2575f6040517f1e4fbdf700000000000000000000000000000000000000000000000000000000815260040161009991906102c7565b60405180910390fd5b6100b18161015b60201b60201c565b505f73ffffffffffffffffffffffffffffffffffffffff168173ffffffffffffffffffffffffffffffffffffffff1603610120576040517f08c379a00000000000000000000000000000000000000000000000000000000081526004016101179061033a565b60405180910390fd5b8073ffffffffffffffffffffffffffffffffffffffff1660808173ffffffffffffffffffffffffffffffffffffffff16815250505050610358565b5f5f5f9054906101000a900473ffffffffffffffffffffffffffffffffffffffff169050815f5f6101000a81548173ffffffffffffffffffffffffffffffffffffffff021916908373ffffffffffffffffffffffffffffffffffffffff1602179055508173ffffffffffffffffffffffffffffffffffffffff168173ffffffffffffffffffffffffffffffffffffffff167f8be0079c531659141344cd1fd0a4f28419497f9722a3daafe3b4186f6b6457e060405160405180910390a35050565b5f5ffd5b5f73ffffffffffffffffffffffffffffffffffffffff82169050919050565b5f61024982610220565b9050919050565b6102598161023f565b8114610263575f5ffd5b50565b5f8151905061027481610250565b92915050565b5f5f604083850312156102905761028f61021c565b5b5f61029d85828601610266565b92505060206102ae85828601610266565b9150509250929050565b6102c18161023f565b82525050565b5f6020820190506102da5f8301846102b8565b92915050565b5f82825260208201905092915050565b7f666163746f72793d3000000000000000000000000000000000000000000000005f82015250565b5f6103246009836102e0565b915061032f826102f0565b602082019050919050565b5f6020820190508181035f83015261035181610318565b9050919050565b60805161387f6103775f395f8181610b8e0152610eae015261387f5ff3fe608060405234801561000f575f5ffd5b506004361061009c575f3560e01c8063aa6ca80811610064578063aa6ca80814610134578063c45a015514610152578063f02ce01414610170578063f2fde38b1461018c578063fc303208146101a85761009c565b80632095bcc0146100a05780632753c0eb146100bc5780634f64b2be146100d8578063715018a61461010c5780638da5cb5b14610116575b5f5ffd5b6100ba60048036038101906100b5919061132a565b6101db565b005b6100d660048036038101906100d191906113fe565b6103e9565b005b6100f260048036038101906100ed91906114a2565b61072e565b60405161010395949392919061154c565b60405180910390f35b6101146108d8565b005b61011e6108eb565b60405161012b91906115ab565b60405180910390f35b61013c610912565b6040516101499190611750565b60405180910390f35b61015a610b8c565b60405161016791906117cb565b60405180910390f35b61018a6004803603810190610185919061181a565b610bb0565b005b6101a660048036038101906101a19190611858565b610dbe565b005b6101c260048036038101906101bd91906119ab565b610e42565b6040516101d29493929190611a56565b60405180910390f35b6101e3611156565b5f8273ffffffffffffffffffffffffffffffffffffffff1663f2fde38b60e01b8360405160240161021491906115ab565b604051602081830303815290604052907bffffffffffffffffffffffffffffffffffffffffffffffffffffffff19166020820180517bffffffffffffffffffffffffffffffffffffffffffffffffffffffff838183161783525050505060405161027e9190611add565b5f604051808303815f865af19150503d805f81146102b7576040519150601f19603f3d011682016040523d82523d5f602084013e6102bc565b606091505b50509050806103e4575f8373ffffffffffffffffffffffffffffffffffffffff1663f2fde38b60e01b846040516024016102f691906115ab565b604051602081830303815290604052907bffffffffffffffffffffffffffffffffffffffffffffffffffffffff19166020820180517bffffffffffffffffffffffffffffffffffffffffffffffffffffffff83818316178352505050506040516103609190611add565b5f604051808303815f865af19150503d805f8114610399576040519150601f19603f3d011682016040523d82523d5f602084013e61039e565b606091505b50509050806103e2576040517f08c379a00000000000000000000000000000000000000000000000000000000081526004016103d990611b63565b60405180910390fd5b505b505050565b6103f1611156565b8015610605575f8473ffffffffffffffffffffffffffffffffffffffff166324040ca660e01b8585600160405160240161042d93929190611c3d565b604051602081830303815290604052907bffffffffffffffffffffffffffffffffffffffffffffffffffffffff19166020820180517bffffffffffffffffffffffffffffffffffffffffffffffffffffffff83818316178352505050506040516104979190611add565b5f604051808303815f865af19150503d805f81146104d0576040519150601f19603f3d011682016040523d82523d5f602084013e6104d5565b606091505b50509050806105ff575f8573ffffffffffffffffffffffffffffffffffffffff16633e3b9cea60e01b8686604051602401610511929190611c6d565b604051602081830303815290604052907bffffffffffffffffffffffffffffffffffffffffffffffffffffffff19166020820180517bffffffffffffffffffffffffffffffffffffffffffffffffffffffff838183161783525050505060405161057b9190611add565b5f604051808303815f865af19150503d805f81146105b4576040519150601f19603f3d011682016040523d82523d5f602084013e6105b9565b606091505b50509050806105fd576040517f08c379a00000000000000000000000000000000000000000000000000000000081526004016105f490611cff565b60405180910390fd5b505b50610728565b5f8473ffffffffffffffffffffffffffffffffffffffff166324040ca660e01b85855f60405160240161063a93929190611c3d565b604051602081830303815290604052907bffffffffffffffffffffffffffffffffffffffffffffffffffffffff19166020820180517bffffffffffffffffffffffffffffffffffffffffffffffffffffffff83818316178352505050506040516106a49190611add565b5f604051808303815f865af19150503d805f81146106dd576040519150601f19603f3d011682016040523d82523d5f602084013e6106e2565b606091505b5050905080610726576040517f08c379a000000000000000000000000000000000000000000000000000000000815260040161071d90611d8d565b60405180910390fd5b505b50505050565b6001818154811061073d575f80fd5b905f5260205f2090600502015f91509050805f015f9054906101000a900473ffffffffffffffffffffffffffffffffffffffff1690806001015f9054906101000a900473ffffffffffffffffffffffffffffffffffffffff1690806002015f9054906101000a900473ffffffffffffffffffffffffffffffffffffffff16908060030180546107cb90611dd8565b80601f01602080910402602001604051908101604052809291908181526020018280546107f790611dd8565b80156108425780601f1061081957610100808354040283529160200191610842565b820191905f5260205f20905b81548152906001019060200180831161082557829003601f168201915b50505050509080600401805461085790611dd8565b80601f016020809104026020016040519081016040528092919081815260200182805461088390611dd8565b80156108ce5780601f106108a5576101008083540402835291602001916108ce565b820191905f5260205f20905b8154815290600101906020018083116108b157829003601f168201915b5050505050905085565b6108e0611156565b6108e95f6111dd565b565b5f5f5f9054906101000a900473ffffffffffffffffffffffffffffffffffffffff16905090565b60606001805480602002602001604051908101604052809291908181526020015f905b82821015610b83578382905f5260205f2090600502016040518060a00160405290815f82015f9054906101000a900473ffffffffffffffffffffffffffffffffffffffff1673ffffffffffffffffffffffffffffffffffffffff1673ffffffffffffffffffffffffffffffffffffffff168152602001600182015f9054906101000a900473ffffffffffffffffffffffffffffffffffffffff1673ffffffffffffffffffffffffffffffffffffffff1673ffffffffffffffffffffffffffffffffffffffff168152602001600282015f9054906101000a900473ffffffffffffffffffffffffffffffffffffffff1673ffffffffffffffffffffffffffffffffffffffff1673ffffffffffffffffffffffffffffffffffffffff168152602001600382018054610a6490611dd8565b80601f0160208091040260200160405190810160405280929190818152602001828054610a9090611dd8565b8015610adb5780601f10610ab257610100808354040283529160200191610adb565b820191905f5260205f20905b815481529060010190602001808311610abe57829003601f168201915b50505050508152602001600482018054610af490611dd8565b80601f0160208091040260200160405190810160405280929190818152602001828054610b2090611dd8565b8015610b6b5780601f10610b4257610100808354040283529160200191610b6b565b820191905f5260205f20905b815481529060010190602001808311610b4e57829003601f168201915b50505050508152505081526020019060010190610935565b50505050905090565b7f000000000000000000000000000000000000000000000000000000000000000081565b610bb8611156565b5f8273ffffffffffffffffffffffffffffffffffffffff1663c03afb5960e01b83604051602401610be99190611e17565b604051602081830303815290604052907bffffffffffffffffffffffffffffffffffffffffffffffffffffffff19166020820180517bffffffffffffffffffffffffffffffffffffffffffffffffffffffff8381831617835250505050604051610c539190611add565b5f604051808303815f865af19150503d805f8114610c8c576040519150601f19603f3d011682016040523d82523d5f602084013e610c91565b606091505b5050905080610db9575f8373ffffffffffffffffffffffffffffffffffffffff1663c03afb5960e01b84604051602401610ccb9190611e17565b604051602081830303815290604052907bffffffffffffffffffffffffffffffffffffffffffffffffffffffff19166020820180517bffffffffffffffffffffffffffffffffffffffffffffffffffffffff8381831617835250505050604051610d359190611add565b5f604051808303815f865af19150503d805f8114610d6e576040519150601f19603f3d011682016040523d82523d5f602084013e610d73565b606091505b5050905080610db7576040517f08c379a0000000000000000000000000000000000000000000000000000000008152600401610dae90611e7a565b60405180910390fd5b505b505050565b610dc6611156565b5f73ffffffffffffffffffffffffffffffffffffffff168173ffffffffffffffffffffffffffffffffffffffff1603610e36575f6040517f1e4fbdf7000000000000000000000000000000000000000000000000000000008152600401610e2d91906115ab565b60405180910390fd5b610e3f816111dd565b50565b5f5f5f5f610e4e611156565b5f604051610e5b906112a5565b604051809103905ff080158015610e74573d5f5f3e3d5ffd5b5090505f33604051610e85906112b2565b610e8f91906115ab565b604051809103905ff080158015610ea8573d5f5f3e3d5ffd5b5090505f7f000000000000000000000000000000000000000000000000000000000000000073ffffffffffffffffffffffffffffffffffffffff166303f806148c8c8c8c6040518563ffffffff1660e01b8152600401610f0b9493929190611e98565b6020604051808303815f875af1158015610f27573d5f5f3e3d5ffd5b505050506040513d601f19601f82011682018060405250810190610f4b9190611efd565b905060016040518060a001604052808573ffffffffffffffffffffffffffffffffffffffff1681526020018473ffffffffffffffffffffffffffffffffffffffff1681526020018373ffffffffffffffffffffffffffffffffffffffff1681526020018d81526020018c815250908060018154018082558091505060019003905f5260205f2090600502015f909190919091505f820151815f015f6101000a81548173ffffffffffffffffffffffffffffffffffffffff021916908373ffffffffffffffffffffffffffffffffffffffff1602179055506020820151816001015f6101000a81548173ffffffffffffffffffffffffffffffffffffffff021916908373ffffffffffffffffffffffffffffffffffffffff1602179055506040820151816002015f6101000a81548173ffffffffffffffffffffffffffffffffffffffff021916908373ffffffffffffffffffffffffffffffffffffffff16021790555060608201518160030190816110c391906120bf565b5060808201518160040190816110d991906120bf565b505050600180805490506110ed91906121bb565b7f64b675f520c074c76f4fb393dbf61050ec9c805623c609044256c175c4c174618484848f8f60405161112495949392919061154c565b60405180910390a26001808054905061113d91906121bb565b8383839650965096509650505050945094509450949050565b61115e61129e565b73ffffffffffffffffffffffffffffffffffffffff1661117c6108eb565b73ffffffffffffffffffffffffffffffffffffffff16146111db5761119f61129e565b6040517f118cdaa70000000000000000000000000000000000000000000000000000000081526004016111d291906115ab565b60405180910390fd5b565b5f5f5f9054906101000a900473ffffffffffffffffffffffffffffffffffffffff169050815f5f6101000a81548173ffffffffffffffffffffffffffffffffffffffff021916908373ffffffffffffffffffffffffffffffffffffffff1602179055508173ffffffffffffffffffffffffffffffffffffffff168173ffffffffffffffffffffffffffffffffffffffff167f8be0079c531659141344cd1fd0a4f28419497f9722a3daafe3b4186f6b6457e060405160405180910390a35050565b5f33905090565b610dc9806121ef83390190565b61089280612fb883390190565b5f604051905090565b5f5ffd5b5f5ffd5b5f73ffffffffffffffffffffffffffffffffffffffff82169050919050565b5f6112f9826112d0565b9050919050565b611309816112ef565b8114611313575f5ffd5b50565b5f8135905061132481611300565b92915050565b5f5f604083850312156113405761133f6112c8565b5b5f61134d85828601611316565b925050602061135e85828601611316565b9150509250929050565b5f5ffd5b5f5ffd5b5f5ffd5b5f5f83601f84011261138957611388611368565b5b8235905067ffffffffffffffff8111156113a6576113a561136c565b5b6020830191508360208202830111156113c2576113c1611370565b5b9250929050565b5f8115159050919050565b6113dd816113c9565b81146113e7575f5ffd5b50565b5f813590506113f8816113d4565b92915050565b5f5f5f5f60608587031215611416576114156112c8565b5b5f61142387828801611316565b945050602085013567ffffffffffffffff811115611444576114436112cc565b5b61145087828801611374565b93509350506040611463878288016113ea565b91505092959194509250565b5f819050919050565b6114818161146f565b811461148b575f5ffd5b50565b5f8135905061149c81611478565b92915050565b5f602082840312156114b7576114b66112c8565b5b5f6114c48482850161148e565b91505092915050565b6114d6816112ef565b82525050565b5f81519050919050565b5f82825260208201905092915050565b8281835e5f83830152505050565b5f601f19601f8301169050919050565b5f61151e826114dc565b61152881856114e6565b93506115388185602086016114f6565b61154181611504565b840191505092915050565b5f60a08201905061155f5f8301886114cd565b61156c60208301876114cd565b61157960408301866114cd565b818103606083015261158b8185611514565b9050818103608083015261159f8184611514565b90509695505050505050565b5f6020820190506115be5f8301846114cd565b92915050565b5f81519050919050565b5f82825260208201905092915050565b5f819050602082019050919050565b6115f6816112ef565b82525050565b5f82825260208201905092915050565b5f611616826114dc565b61162081856115fc565b93506116308185602086016114f6565b61163981611504565b840191505092915050565b5f60a083015f8301516116595f8601826115ed565b50602083015161166c60208601826115ed565b50604083015161167f60408601826115ed565b5060608301518482036060860152611697828261160c565b915050608083015184820360808601526116b1828261160c565b9150508091505092915050565b5f6116c98383611644565b905092915050565b5f602082019050919050565b5f6116e7826115c4565b6116f181856115ce565b935083602082028501611703856115de565b805f5b8581101561173e578484038952815161171f85826116be565b945061172a836116d1565b925060208a01995050600181019050611706565b50829750879550505050505092915050565b5f6020820190508181035f83015261176881846116dd565b905092915050565b5f819050919050565b5f61179361178e611789846112d0565b611770565b6112d0565b9050919050565b5f6117a482611779565b9050919050565b5f6117b58261179a565b9050919050565b6117c5816117ab565b82525050565b5f6020820190506117de5f8301846117bc565b92915050565b5f60ff82169050919050565b6117f9816117e4565b8114611803575f5ffd5b50565b5f81359050611814816117f0565b92915050565b5f5f604083850312156118305761182f6112c8565b5b5f61183d85828601611316565b925050602061184e85828601611806565b9150509250929050565b5f6020828403121561186d5761186c6112c8565b5b5f61187a84828501611316565b91505092915050565b5f5ffd5b7f4e487b71000000000000000000000000000000000000000000000000000000005f52604160045260245ffd5b6118bd82611504565b810181811067ffffffffffffffff821117156118dc576118db611887565b5b80604052505050565b5f6118ee6112bf565b90506118fa82826118b4565b919050565b5f67ffffffffffffffff82111561191957611918611887565b5b61192282611504565b9050602081019050919050565b828183375f83830152505050565b5f61194f61194a846118ff565b6118e5565b90508281526020810184848401111561196b5761196a611883565b5b61197684828561192f565b509392505050565b5f82601f83011261199257611991611368565b5b81356119a284826020860161193d565b91505092915050565b5f5f5f5f608085870312156119c3576119c26112c8565b5b5f85013567ffffffffffffffff8111156119e0576119df6112cc565b5b6119ec8782880161197e565b945050602085013567ffffffffffffffff811115611a0d57611a0c6112cc565b5b611a198782880161197e565b9350506040611a2a87828801611316565b9250506060611a3b8782880161148e565b91505092959194509250565b611a508161146f565b82525050565b5f608082019050611a695f830187611a47565b611a7660208301866114cd565b611a8360408301856114cd565b611a9060608301846114cd565b95945050505050565b5f81519050919050565b5f81905092915050565b5f611ab782611a99565b611ac18185611aa3565b9350611ad18185602086016114f6565b80840191505092915050565b5f611ae88284611aad565b915081905092915050565b7f666f72776172645472616e7366657241636c4f776e6572736869703a206661695f8201527f6c65640000000000000000000000000000000000000000000000000000000000602082015250565b5f611b4d6023836114e6565b9150611b5882611af3565b604082019050919050565b5f6020820190508181035f830152611b7a81611b41565b9050919050565b5f82825260208201905092915050565b5f819050919050565b5f611ba583836115ed565b60208301905092915050565b5f611bbf6020840184611316565b905092915050565b5f602082019050919050565b5f611bde8385611b81565b9350611be982611b91565b805f5b85811015611c2157611bfe8284611bb1565b611c088882611b9a565b9750611c1383611bc7565b925050600181019050611bec565b5085925050509392505050565b611c37816113c9565b82525050565b5f6040820190508181035f830152611c56818587611bd3565b9050611c656020830184611c2e565b949350505050565b5f6020820190508181035f830152611c86818486611bd3565b90509392505050565b7f666f7277617264416c6c6f776c6973743a20626f74682076617269616e7473205f8201527f6661696c65640000000000000000000000000000000000000000000000000000602082015250565b5f611ce96026836114e6565b9150611cf482611c8f565b604082019050919050565b5f6020820190508181035f830152611d1681611cdd565b9050919050565b7f666f7277617264416c6c6f776c6973743a2072656d6f7665206e6f74207375705f8201527f706f727465642062792041434c00000000000000000000000000000000000000602082015250565b5f611d77602d836114e6565b9150611d8282611d1d565b604082019050919050565b5f6020820190508181035f830152611da481611d6b565b9050919050565b7f4e487b71000000000000000000000000000000000000000000000000000000005f52602260045260245ffd5b5f6002820490506001821680611def57607f821691505b602082108103611e0257611e01611dab565b5b50919050565b611e11816117e4565b82525050565b5f602082019050611e2a5f830184611e08565b92915050565b7f666f727761726453657450686173653a206661696c65640000000000000000005f82015250565b5f611e646017836114e6565b9150611e6f82611e30565b602082019050919050565b5f6020820190508181035f830152611e9181611e58565b9050919050565b5f6080820190508181035f830152611eb08187611514565b90508181036020830152611ec48186611514565b9050611ed360408301856114cd565b611ee06060830184611a47565b95945050505050565b5f81519050611ef781611300565b92915050565b5f60208284031215611f1257611f116112c8565b5b5f611f1f84828501611ee9565b91505092915050565b5f819050815f5260205f209050919050565b5f6020601f8301049050919050565b5f82821b905092915050565b5f60088302611f847fffffffffffffffffffffffffffffffffffffffffffffffffffffffffffffffff82611f49565b611f8e8683611f49565b95508019841693508086168417925050509392505050565b5f611fc0611fbb611fb68461146f565b611770565b61146f565b9050919050565b5f819050919050565b611fd983611fa6565b611fed611fe582611fc7565b848454611f55565b825550505050565b5f5f905090565b612004611ff5565b61200f818484611fd0565b505050565b5b81811015612032576120275f82611ffc565b600181019050612015565b5050565b601f8211156120775761204881611f28565b61205184611f3a565b81016020851015612060578190505b61207461206c85611f3a565b830182612014565b50505b505050565b5f82821c905092915050565b5f6120975f198460080261207c565b1980831691505092915050565b5f6120af8383612088565b9150826002028217905092915050565b6120c8826114dc565b67ffffffffffffffff8111156120e1576120e0611887565b5b6120eb8254611dd8565b6120f6828285612036565b5f60209050601f831160018114612127575f8415612115578287015190505b61211f85826120a4565b865550612186565b601f19841661213586611f28565b5f5b8281101561215c57848901518255600182019150602085019450602081019050612137565b868310156121795784890151612175601f891682612088565b8355505b6001600288020188555050505b505050505050565b7f4e487b71000000000000000000000000000000000000000000000000000000005f52601160045260245ffd5b5f6121c58261146f565b91506121d08361146f565b92508282039050818111156121e8576121e761218e565b5b9291505056fe6080604052348015600e575f5ffd5b50335f5f6101000a81548173ffffffffffffffffffffffffffffffffffffffff021916908373ffffffffffffffffffffffffffffffffffffffff1602179055503373ffffffffffffffffffffffffffffffffffffffff165f73ffffffffffffffffffffffffffffffffffffffff167f8be0079c531659141344cd1fd0a4f28419497f9722a3daafe3b4186f6b6457e060405160405180910390a3610d14806100b55f395ff3fe608060405234801561000f575f5ffd5b5060043610610091575f3560e01c8063a7cd52cb11610064578063a7cd52cb1461011b578063b1c9fe6e1461014b578063c03afb5914610169578063db26a39914610185578063f2fde38b146101a357610091565b806305a3b809146100955780633e3b9cea146100c55780638da5cb5b146100e15780639bb0014f146100ff575b5f5ffd5b6100af60048036038101906100aa91906109b8565b6101bf565b6040516100bc91906109fd565b60405180910390f35b6100df60048036038101906100da9190610a77565b61039b565b005b6100e9610530565b6040516100f69190610ad1565b60405180910390f35b610119600480360381019061011491906109b8565b610554565b005b610135600480360381019061013091906109b8565b610668565b60405161014291906109fd565b60405180910390f35b610153610685565b6040516101609190610b05565b60405180910390f35b610183600480360381019061017e9190610b48565b610697565b005b61018d610779565b60405161019a9190610ad1565b60405180910390f35b6101bd60048036038101906101b891906109b8565b61079e565b005b5f5f5f60149054906101000a900460ff1660ff16036101e0575f9050610396565b5f5f73ffffffffffffffffffffffffffffffffffffffff1660025f9054906101000a900473ffffffffffffffffffffffffffffffffffffffff1673ffffffffffffffffffffffffffffffffffffffff160361023b575f6102d7565b5f60025f9054906101000a900473ffffffffffffffffffffffffffffffffffffffff1673ffffffffffffffffffffffffffffffffffffffff166370a08231856040518263ffffffff1660e01b81526004016102969190610ad1565b602060405180830381865afa1580156102b1573d5f5f3e3d5ffd5b505050506040513d601f19601f820116820180604052508101906102d59190610ba6565b115b905060015f60149054906101000a900460ff1660ff16036102fb5780915050610396565b60025f60149054906101000a900460ff1660ff160361036e5760015f8473ffffffffffffffffffffffffffffffffffffffff1673ffffffffffffffffffffffffffffffffffffffff1681526020019081526020015f205f9054906101000a900460ff16806103665750805b915050610396565b60035f60149054906101000a900460ff1660ff1603610391576001915050610396565b5f9150505b919050565b5f5f9054906101000a900473ffffffffffffffffffffffffffffffffffffffff1673ffffffffffffffffffffffffffffffffffffffff163373ffffffffffffffffffffffffffffffffffffffff1614610429576040517f08c379a000000000000000000000000000000000000000000000000000000000815260040161042090610c2b565b60405180910390fd5b5f5f90505b8282905081101561052b576001805f8585858181106104505761044f610c49565b5b905060200201602081019061046591906109b8565b73ffffffffffffffffffffffffffffffffffffffff1673ffffffffffffffffffffffffffffffffffffffff1681526020019081526020015f205f6101000a81548160ff0219169083151502179055508282828181106104c7576104c6610c49565b5b90506020020160208101906104dc91906109b8565b73ffffffffffffffffffffffffffffffffffffffff167f28f54e0b69489ad5fd27625e6fcff58faff5da96f8a077d08bb09af25bb41d5460405160405180910390a2808060010191505061042e565b505050565b5f5f9054906101000a900473ffffffffffffffffffffffffffffffffffffffff1681565b5f5f9054906101000a900473ffffffffffffffffffffffffffffffffffffffff1673ffffffffffffffffffffffffffffffffffffffff163373ffffffffffffffffffffffffffffffffffffffff16146105e2576040517f08c379a00000000000000000000000000000000000000000000000000000000081526004016105d990610c2b565b60405180910390fd5b8060025f6101000a81548173ffffffffffffffffffffffffffffffffffffffff021916908373ffffffffffffffffffffffffffffffffffffffff1602179055508073ffffffffffffffffffffffffffffffffffffffff167f72babedc7151bf6fe1c269816220bedef2a1f0d7438766e2374595a87f1239b360405160405180910390a250565b6001602052805f5260405f205f915054906101000a900460ff1681565b5f60149054906101000a900460ff1681565b5f5f9054906101000a900473ffffffffffffffffffffffffffffffffffffffff1673ffffffffffffffffffffffffffffffffffffffff163373ffffffffffffffffffffffffffffffffffffffff1614610725576040517f08c379a000000000000000000000000000000000000000000000000000000000815260040161071c90610c2b565b60405180910390fd5b805f60146101000a81548160ff021916908360ff1602179055507f0509320fafbee98cfcbf27d06905ceb04a2c2524a6a7f9a57ae3a5ca6c58243d8160405161076e9190610b05565b60405180910390a150565b60025f9054906101000a900473ffffffffffffffffffffffffffffffffffffffff1681565b5f5f9054906101000a900473ffffffffffffffffffffffffffffffffffffffff1673ffffffffffffffffffffffffffffffffffffffff163373ffffffffffffffffffffffffffffffffffffffff161461082c576040517f08c379a000000000000000000000000000000000000000000000000000000000815260040161082390610c2b565b60405180910390fd5b5f73ffffffffffffffffffffffffffffffffffffffff168173ffffffffffffffffffffffffffffffffffffffff160361089a576040517f08c379a000000000000000000000000000000000000000000000000000000000815260040161089190610cc0565b60405180910390fd5b8073ffffffffffffffffffffffffffffffffffffffff165f5f9054906101000a900473ffffffffffffffffffffffffffffffffffffffff1673ffffffffffffffffffffffffffffffffffffffff167f8be0079c531659141344cd1fd0a4f28419497f9722a3daafe3b4186f6b6457e060405160405180910390a3805f5f6101000a81548173ffffffffffffffffffffffffffffffffffffffff021916908373ffffffffffffffffffffffffffffffffffffffff16021790555050565b5f5ffd5b5f5ffd5b5f73ffffffffffffffffffffffffffffffffffffffff82169050919050565b5f6109878261095e565b9050919050565b6109978161097d565b81146109a1575f5ffd5b50565b5f813590506109b28161098e565b92915050565b5f602082840312156109cd576109cc610956565b5b5f6109da848285016109a4565b91505092915050565b5f8115159050919050565b6109f7816109e3565b82525050565b5f602082019050610a105f8301846109ee565b92915050565b5f5ffd5b5f5ffd5b5f5ffd5b5f5f83601f840112610a3757610a36610a16565b5b8235905067ffffffffffffffff811115610a5457610a53610a1a565b5b602083019150836020820283011115610a7057610a6f610a1e565b5b9250929050565b5f5f60208385031215610a8d57610a8c610956565b5b5f83013567ffffffffffffffff811115610aaa57610aa961095a565b5b610ab685828601610a22565b92509250509250929050565b610acb8161097d565b82525050565b5f602082019050610ae45f830184610ac2565b92915050565b5f60ff82169050919050565b610aff81610aea565b82525050565b5f602082019050610b185f830184610af6565b92915050565b610b2781610aea565b8114610b31575f5ffd5b50565b5f81359050610b4281610b1e565b92915050565b5f60208284031215610b5d57610b5c610956565b5b5f610b6a84828501610b34565b91505092915050565b5f819050919050565b610b8581610b73565b8114610b8f575f5ffd5b50565b5f81519050610ba081610b7c565b92915050565b5f60208284031215610bbb57610bba610956565b5b5f610bc884828501610b92565b91505092915050565b5f82825260208201905092915050565b7f41434c3a206e6f74206f776e65720000000000000000000000000000000000005f82015250565b5f610c15600e83610bd1565b9150610c2082610be1565b602082019050919050565b5f6020820190508181035f830152610c4281610c09565b9050919050565b7f4e487b71000000000000000000000000000000000000000000000000000000005f52603260045260245ffd5b7f41434c3a207a65726f206f776e657200000000000000000000000000000000005f82015250565b5f610caa600f83610bd1565b9150610cb582610c76565b602082019050919050565b5f6020820190508181035f830152610cd781610c9e565b905091905056fea2646970667358221220e9cb7b4d315bab5c53651fc89de511254b099f73fcf2e0fef80958953a0a3bd864736f6c634300081e0033608060405234801561000f575f5ffd5b50604051610892380380610892833981810160405281019061003191906101d7565b805f73ffffffffffffffffffffffffffffffffffffffff168173ffffffffffffffffffffffffffffffffffffffff16036100a2575f6040517f1e4fbdf70000000000000000000000000000000000000000000000000000000081526004016100999190610211565b60405180910390fd5b6100b1816100b860201b60201c565b505061022a565b5f5f5f9054906101000a900473ffffffffffffffffffffffffffffffffffffffff169050815f5f6101000a81548173ffffffffffffffffffffffffffffffffffffffff021916908373ffffffffffffffffffffffffffffffffffffffff1602179055508173ffffffffffffffffffffffffffffffffffffffff168173ffffffffffffffffffffffffffffffffffffffff167f8be0079c531659141344cd1fd0a4f28419497f9722a3daafe3b4186f6b6457e060405160405180910390a35050565b5f5ffd5b5f73ffffffffffffffffffffffffffffffffffffffff82169050919050565b5f6101a68261017d565b9050919050565b6101b68161019c565b81146101c0575f5ffd5b50565b5f815190506101d1816101ad565b92915050565b5f602082840312156101ec576101eb610179565b5b5f6101f9848285016101c3565b91505092915050565b61020b8161019c565b82525050565b5f6020820190506102245f830184610202565b92915050565b61065b806102375f395ff3fe608060405234801561000f575f5ffd5b5060043610610060575f3560e01c8063358b8166146100645780633bc007a814610094578063507cd30f146100b0578063715018a6146100cc5780638da5cb5b146100d6578063f2fde38b146100f4575b5f5ffd5b61007e600480360381019061007991906104d9565b610110565b60405161008b919061051c565b60405180910390f35b6100ae60048036038101906100a9919061055f565b610125565b005b6100ca60048036038101906100c5919061055f565b6101c1565b005b6100d461026e565b005b6100de610281565b6040516100eb91906105ac565b60405180910390f35b61010e600480360381019061010991906104d9565b6102a8565b005b6001602052805f5260405f205f915090505481565b61012d61032c565b8060015f8473ffffffffffffffffffffffffffffffffffffffff1673ffffffffffffffffffffffffffffffffffffffff1681526020019081526020015f20819055508173ffffffffffffffffffffffffffffffffffffffff167f259df9d652a361219319531e4a2ee3bde48700f85da495c317235fa3d1d0b665826040516101b5919061051c565b60405180910390a25050565b6101c961032c565b8060015f8473ffffffffffffffffffffffffffffffffffffffff1673ffffffffffffffffffffffffffffffffffffffff1681526020019081526020015f205f82825461021591906105f2565b925050819055508173ffffffffffffffffffffffffffffffffffffffff167f0fe6fcb45adaaa54f7e3491f6a7964049817f1e437f33587e634a4629fbcf3a682604051610262919061051c565b60405180910390a25050565b61027661032c565b61027f5f6103b3565b565b5f5f5f9054906101000a900473ffffffffffffffffffffffffffffffffffffffff16905090565b6102b061032c565b5f73ffffffffffffffffffffffffffffffffffffffff168173ffffffffffffffffffffffffffffffffffffffff1603610320575f6040517f1e4fbdf700000000000000000000000000000000000000000000000000000000815260040161031791906105ac565b60405180910390fd5b610329816103b3565b50565b610334610474565b73ffffffffffffffffffffffffffffffffffffffff16610352610281565b73ffffffffffffffffffffffffffffffffffffffff16146103b157610375610474565b6040517f118cdaa70000000000000000000000000000000000000000000000000000000081526004016103a891906105ac565b60405180910390fd5b565b5f5f5f9054906101000a900473ffffffffffffffffffffffffffffffffffffffff169050815f5f6101000a81548173ffffffffffffffffffffffffffffffffffffffff021916908373ffffffffffffffffffffffffffffffffffffffff1602179055508173ffffffffffffffffffffffffffffffffffffffff168173ffffffffffffffffffffffffffffffffffffffff167f8be0079c531659141344cd1fd0a4f28419497f9722a3daafe3b4186f6b6457e060405160405180910390a35050565b5f33905090565b5f5ffd5b5f73ffffffffffffffffffffffffffffffffffffffff82169050919050565b5f6104a88261047f565b9050919050565b6104b88161049e565b81146104c2575f5ffd5b50565b5f813590506104d3816104af565b92915050565b5f602082840312156104ee576104ed61047b565b5b5f6104fb848285016104c5565b91505092915050565b5f819050919050565b61051681610504565b82525050565b5f60208201905061052f5f83018461050d565b92915050565b61053e81610504565b8114610548575f5ffd5b50565b5f8135905061055981610535565b92915050565b5f5f604083850312156105755761057461047b565b5b5f610582858286016104c5565b92505060206105938582860161054b565b9150509250929050565b6105a68161049e565b82525050565b5f6020820190506105bf5f83018461059d565b92915050565b7f4e487b71000000000000000000000000000000000000000000000000000000005f52601160045260245ffd5b5f6105fc82610504565b915061060783610504565b925082820190508082111561061f5761061e6105c5565b5b9291505056fea2646970667358221220ee83b92d921b2e192cd12afa1cc247b520fdeae7d681f227b7a2a886c7c4f44f64736f6c634300081e0033a264697066735822122066e5e9066e6d2b32c37ed86edc0e4ae019b27c1d0c633c39ac1fdbebd901456a64736f6c634300081e0033","linkReferences":{}},"methodIdentifiers":{"createSongToken(string,string,address,uint256)":"fc303208","factory()":"c45a0155","forwardAllowlist(address,address[],bool)":"2753c0eb","forwardSetPhase(address,uint8)":"f02ce014","forwardTransferAclOwnership(address,address)":"2095bcc0","getTokens()":"aa6ca808","owner()":"8da5cb5b","renounceOwnership()":"715018a6","tokens(uint256)":"4f64b2be","transferOwnership(address)":"f2fde38b"},"id":48}