{"abi":[{"type":"constructor","inputs":[{"name":"initialOwner","type":"address","internalType":"address"}],"stateMutability":"nonpayable"},{"type":"function","name":"createSongToken","inputs":[{"name":"name","type":"string","internalType":"string"},{"name":"symbol","type":"string","internalType":"string"},{"name":"a","type":"uint256","internalType":"uint256"},{"name":"b","type":"uint256","internalType":"uint256"},{"name":"treasury","type":"address","internalType":"address"},{"name":"feeBps","type":"uint256","internalType":"uint256"}],"outputs":[{"name":"","type":"uint256","internalType":"uint256"},{"name":"","type":"address","internalType":"address"},{"name":"","type":"address","internalType":"address"},{"name":"","type":"address","internalType":"address"}],"stateMutability":"nonpayable"},{"type":"function","name":"forwardAllowlist","inputs":[{"name":"acl","type":"address","internalType":"address"},{"name":"addrs","type":"address[]","internalType":"address[]"},{"name":"allow","type":"bool","internalType":"bool"}],"outputs":[],"stateMutability":"nonpayable"},{"type":"function","name":"forwardSetPhase","inputs":[{"name":"acl","type":"address","internalType":"address"},{"name":"phase","type":"uint8","internalType":"uint8"}],"outputs":[],"stateMutability":"nonpayable"},{"type":"function","name":"forwardTransferAclOwnership","inputs":[{"name":"acl","type":"address","internalType":"address"},{"name":"newOwner","type":"address","internalType":"address"}],"outputs":[],"stateMutability":"nonpayable"},{"type":"function","name":"getTokens","inputs":[],"outputs":[{"name":"","type":"tuple[]","internalType":"struct SongTokenRegistry.SongToken[]","components":[{"name":"acl","type":"address","internalType":"address"},{"name":"points","type":"address","internalType":"address"},{"name":"token","type":"address","internalType":"address"},{"name":"name","type":"string","internalType":"string"},{"name":"symbol","type":"string","internalType":"string"}]}],"stateMutability":"view"},{"type":"function","name":"owner","inputs":[],"outputs":[{"name":"","type":"address","internalType":"address"}],"stateMutability":"view"},{"type":"function","name":"renounceOwnership","inputs":[],"outputs":[],"stateMutability":"nonpayable"},{"type":"function","name":"tokens","inputs":[{"name":"","type":"uint256","internalType":"uint256"}],"outputs":[{"name":"acl","type":"address","internalType":"address"},{"name":"points","type":"address","internalType":"address"},{"name":"token","type":"address","internalType":"address"},{"name":"name","type":"string","internalType":"string"},{"name":"symbol","type":"string","internalType":"string"}],"stateMutability":"view"},{"type":"function","name":"transferOwnership","inputs":[{"name":"newOwner","type":"address","internalType":"address"}],"outputs":[],"stateMutability":"nonpayable"},{"type":"event","name":"OwnershipTransferred","inputs":[{"name":"previousOwner","type":"address","indexed":true,"internalType":"address"},{"name":"newOwner","type":"address","indexed":true,"internalType":"address"}],"anonymous":false},{"type":"event","name":"SongTokenCreated","inputs":[{"name":"index","type":"uint256","indexed":true,"internalType":"uint256"},{"name":"acl","type":"address","indexed":false,"internalType":"address"},{"name":"points","type":"address","indexed":false,"internalType":"address"},{"name":"token","type":"address","indexed":false,"internalType":"address"},{"name":"name","type":"string","indexed":false,"internalType":"string"},{"name":"symbol","type":"string","indexed":false,"internalType":"string"}],"anonymous":false},{"type":"error","name":"OwnableInvalidOwner","inputs":[{"name":"owner","type":"address","internalType":"address"}]},{"type":"error","name":"OwnableUnauthorizedAccount","inputs":[{"name":"account","type":"address","internalType":"address"}]}],"bytecode":{"object":"0x60803460bc57601f6132a338819003918201601f19168301916001600160401b0383118484101760c15780849260209460405283398101031260bc57516001600160a01b0381169081900360bc57801560a657600080546001600160a01b031981168317825560405192916001600160a01b03909116907f8be0079c531659141344cd1fd0a4f28419497f9722a3daafe3b4186f6b6457e09080a36131cb90816100d88239f35b631e4fbdf760e01b600052600060045260246000fd5b600080fd5b634e487b7160e01b600052604160045260246000fdfe6080604052600436101561001257600080fd5b60003560e01c80632095bcc014610b8b5780632753c0eb1461095f57806348de4b871461049f5780634f64b2be1461042a578063715018a6146103d15780638da5cb5b146103a8578063aa6ca80814610201578063f02ce0141461010d5763f2fde38b1461007f57600080fd5b3461010857602036600319011261010857610098610c92565b6100a0610f58565b6001600160a01b031680156100f257600080546001600160a01b03198116831782556001600160a01b0316907f8be0079c531659141344cd1fd0a4f28419497f9722a3daafe3b4186f6b6457e09080a3005b631e4fbdf760e01b600052600060045260246000fd5b600080fd5b3461010857604036600319011261010857610126610c92565b60243560ff81168091036101085761013c610f58565b600080604051602081019063c03afb5960e01b825284602482015260248152610166604482610cc3565b519082865af1610174610ee3565b501561017c57005b600091829182604051602081019263c03afb5960e01b84526024820152602481526101a8604482610cc3565b51925af16101b4610ee3565b50156101bc57005b60405162461bcd60e51b815260206004820152601760248201527f666f727761726453657450686173653a206661696c65640000000000000000006044820152606490fd5b34610108576000366003190112610108576001546001600160401b038111610392576040519061023760208260051b0183610cc3565b80825260208201908160016000527fb10e2d527612073b26eecdfd717e6a320cf44b4afac2b0732d9fcbe2b7fa0cf66000915b83831061032b57848660405191829160208301906020845251809152604083019060408160051b85010192916000905b8282106102a957505050500390f35b9193600191939550602061031b8192603f198a8203018652885190858060a01b038251168152858060a01b03848301511684820152858060a01b036040830151166040820152608061030a606084015160a0606085015260a0840190610e59565b920151906080818403910152610e59565b960192019201859493919261029a565b6005602060019260405161033e81610ca8565b855460a086901b869003908116825286860154811684830152600287015416604082015261036e60038701610db5565b606082015261037f60048701610db5565b608082015281520192019201919061026a565b634e487b7160e01b600052604160045260246000fd5b34610108576000366003190112610108576000546040516001600160a01b039091168152602090f35b34610108576000366003190112610108576103ea610f58565b600080546001600160a01b0319811682556001600160a01b03167f8be0079c531659141344cd1fd0a4f28419497f9722a3daafe3b4186f6b6457e08280a3005b34610108576020366003190112610108576004356001548110156101085761045190610d46565b508054600182015460028301546001600160a01b03918216939282169261049b929091169061048e600461048760038401610db5565b9201610db5565b9160405195869586610e9a565b0390f35b346101085760c0366003190112610108576004356001600160401b038111610108576104cf903690600401610cff565b6024356001600160401b038111610108576104ee903690600401610cff565b6084356001600160a01b038116908190036101085761050b610f58565b60405161063a8082018281106001600160401b03821117610392578291610f82833903906000f08015610953576040516103ee808201908282106001600160401b038311176103925760209183916115bc83393381520301906000f091821561095357604051906117ec908183018381106001600160401b038211176103925783926119aa843960e081526105b46105a660e083018a610e59565b828103602084015288610e59565b9160443560408301526064356060830152608082015260a43560a082015260c03391015203906000f0908115610953576040516001600160a01b0392831693831692919091169061060481610ca8565b81815260208101908382526040810185815260608201908882526080830193888552600154680100000000000000008110156103925780600161064a9201600155610d46565b94909461093d575184546001600160a01b039182166001600160a01b03199182161786559151600186018054918316918416919091179055915160028501805491909316911617905551805160038301916001600160401b038211610392576106b38354610d7b565b601f81116108f5575b50602090601f831160011461088a576004949392916000918361087f575b50508160011b916000199060031b1c19161790555b0190518051906001600160401b03821161039257819061070f8454610d7b565b601f811161082c575b50602090601f83116001146107c7576000926107bc575b50508160011b916000199060031b1c19161790555b6001546000198101949085116107a6577f64b675f520c074c76f4fb393dbf61050ec9c805623c609044256c175c4c17461859160809761078c60405192839289898986610e9a565b0390a2604051938452602084015260408301526060820152f35b634e487b7160e01b600052601160045260246000fd5b01519050888061072f565b60008581528281209350601f198516905b81811061081457509084600195949392106107fb575b505050811b019055610744565b015160001960f88460031b161c191690558880806107ee565b929360206001819287860151815501950193016107d8565b909150836000526020600020601f840160051c81019160208510610875575b90601f859493920160051c01905b8181106108665750610718565b60008155849350600101610859565b909150819061084b565b015190508b806106da565b90601f1983169184600052816000209260005b8181106108dd5750916001939185600498979694106108c4575b505050811b0190556106ef565b015160001960f88460031b161c191690558b80806108b7565b9293602060018192878601518155019501930161089d565b836000526020600020601f840160051c81019160208510610933575b601f0160051c01905b81811061092757506106bc565b6000815560010161091a565b9091508190610911565b634e487b7160e01b600052600060045260246000fd5b6040513d6000823e3d90fd5b3461010857606036600319011261010857610978610c92565b6024356001600160401b0381116101085736602382011215610108578060040135916001600160401b038311610108576024820191602436918560051b010111610108576044358015158103610108576109d0610f58565b15610ad6576000806040516020810190631202065360e11b825260406024820152610a1881610a03606482018a8a610f13565b6001604483015203601f198101835282610cc3565b519082855af1610a26610ee3565b5015610a2e57005b60009283610a60610a6e82956040519283916020830196631f1dce7560e11b8852602060248501526044840191610f13565b03601f198101835282610cc3565b51925af1610a7a610ee3565b5015610a8257005b60405162461bcd60e51b815260206004820152602660248201527f666f7277617264416c6c6f776c6973743a20626f74682076617269616e74732060448201526519985a5b195960d21b6064820152608490fd5b60009283610b08610b1c82956040519283916020830196631202065360e11b8852604060248501526064840191610f13565b84604483015203601f198101835282610cc3565b51925af1610b28610ee3565b5015610b3057005b60405162461bcd60e51b815260206004820152602d60248201527f666f7277617264416c6c6f776c6973743a2072656d6f7665206e6f742073757060448201526c1c1bdc9d195908189e481050d3609a1b6064820152608490fd5b3461010857604036600319011261010857610ba4610c92565b6024356001600160a01b0381169081900361010857610bc1610f58565b600080604051602081019063f2fde38b60e01b825284602482015260248152610beb604482610cc3565b519082865af1610bf9610ee3565b5015610c0157005b600091829182604051602081019263f2fde38b60e01b8452602482015260248152610c2d604482610cc3565b51925af1610c39610ee3565b5015610c4157005b60405162461bcd60e51b815260206004820152602360248201527f666f72776172645472616e7366657241636c4f776e6572736869703a206661696044820152621b195960ea1b6064820152608490fd5b600435906001600160a01b038216820361010857565b60a081019081106001600160401b0382111761039257604052565b90601f801991011681019081106001600160401b0382111761039257604052565b6001600160401b03811161039257601f01601f191660200190565b81601f8201121561010857803590610d1682610ce4565b92610d246040519485610cc3565b8284526020838301011161010857816000926020809301838601378301015290565b600154811015610d655760016000526005602060002091020190600090565b634e487b7160e01b600052603260045260246000fd5b90600182811c92168015610dab575b6020831014610d9557565b634e487b7160e01b600052602260045260246000fd5b91607f1691610d8a565b9060405191826000825492610dc984610d7b565b8084529360018116908115610e375750600114610df0575b50610dee92500383610cc3565b565b90506000929192526020600020906000915b818310610e1b575050906020610dee9282010138610de1565b6020919350806001915483858901015201910190918492610e02565b905060209250610dee94915060ff191682840152151560051b82010138610de1565b919082519283825260005b848110610e85575050826000602080949584010152601f8019910116010190565b80602080928401015182828601015201610e64565b6001600160a01b0391821681529181166020830152909116604082015260a060608201819052610ee0939192610ed291840190610e59565b916080818403910152610e59565b90565b3d15610f0e573d90610ef482610ce4565b91610f026040519384610cc3565b82523d6000602084013e565b606090565b916020908281520191906000905b808210610f2e5750505090565b90919283359060018060a01b03821680920361010857602081600193829352019401920190610f21565b6000546001600160a01b03163303610f6c57565b63118cdaa760e01b6000523360045260246000fdfe60808060405234604e57600080546001600160a01b031916339081178255907f8be0079c531659141344cd1fd0a4f28419497f9722a3daafe3b4186f6b6457e08180a36105e690816100548239f35b600080fdfe6080604052600436101561001257600080fd5b60003560e01c806305a3b809146103d15780633e3b9cea146102e45780638da5cb5b146102bb5780639bb0014f14610247578063a7cd52cb14610204578063b1c9fe6e146101e0578063c03afb591461015f578063db26a399146101365763f2fde38b1461007f57600080fd5b34610131576020366003190112610131576004356001600160a01b03811690819003610131576000546001600160a01b0381166100bd338214610539565b82156100fa5782907f8be0079c531659141344cd1fd0a4f28419497f9722a3daafe3b4186f6b6457e0600080a36001600160a01b03191617600055005b60405162461bcd60e51b815260206004820152600f60248201526e20a1a61d103d32b9379037bbb732b960891b6044820152606490fd5b600080fd5b34610131576000366003190112610131576002546040516001600160a01b039091168152602090f35b346101315760203660031901126101315760043560ff811690818103610131576000547f0509320fafbee98cfcbf27d06905ceb04a2c2524a6a7f9a57ae3a5ca6c58243d926020929091906101be336001600160a01b03841614610539565b60ff60a01b1990911660a09190911b60ff60a01b1617600055604051908152a1005b3461013157600036600319011261013157602060ff60005460a01c16604051908152f35b34610131576020366003190112610131576004356001600160a01b03811690819003610131576000526001602052602060ff604060002054166040519015158152f35b34610131576020366003190112610131576004356001600160a01b038116908190036101315761028260018060a01b03600054163314610539565b600280546001600160a01b031916821790557f72babedc7151bf6fe1c269816220bedef2a1f0d7438766e2374595a87f1239b3600080a2005b34610131576000366003190112610131576000546040516001600160a01b039091168152602090f35b346101315760203660031901126101315760043567ffffffffffffffff811161013157366023820112156101315780600401359067ffffffffffffffff8211610131576024810190602436918460051b0101116101315761035060018060a01b03600054163314610539565b60005b82811061035c57005b6001906001600160a01b0361037a610375838787610576565b61059c565b166000528160205260406000208260ff19825416179055818060a01b036103a5610375838787610576565b167f28f54e0b69489ad5fd27625e6fcff58faff5da96f8a077d08bb09af25bb41d54600080a201610353565b34610131576020366003190112610131576004356001600160a01b03811681036101315761040060209161040a565b6040519015158152f35b60ff60005460a01c168015610532576002546001600160a01b03168015610529576040516370a0823160e01b81526001600160a01b038416600482015290602090829060249082905afa90811561051d576000916104be575b501515915b600182146104b9576002821461048c5750600391501461048757600090565b600190565b6001600160a01b031660009081526001602052604090205460ff1691905081156104b4575090565b905090565b505090565b9060203d602011610516575b601f8101601f1916830167ffffffffffffffff811184821017610502576020918491604052810103126104ff57505138610463565b80fd5b634e487b7160e01b83526041600452602483fd5b503d6104ca565b6040513d6000823e3d90fd5b50600091610468565b5050600090565b1561054057565b60405162461bcd60e51b815260206004820152600e60248201526d20a1a61d103737ba1037bbb732b960911b6044820152606490fd5b91908110156105865760051b0190565b634e487b7160e01b600052603260045260246000fd5b356001600160a01b0381168103610131579056fea2646970667358221220aad0cc2a12ab1736fd8af57f578a28236a695c4e400a6085cf8c31b127d0610164736f6c634300081e003360803460bc57601f6103ee38819003918201601f19168301916001600160401b0383118484101760c15780849260209460405283398101031260bc57516001600160a01b0381169081900360bc57801560a657600080546001600160a01b031981168317825560405192916001600160a01b03909116907f8be0079c531659141344cd1fd0a4f28419497f9722a3daafe3b4186f6b6457e09080a361031690816100d88239f35b631e4fbdf760e01b600052600060045260246000fd5b600080fd5b634e487b7160e01b600052604160045260246000fdfe608080604052600436101561001357600080fd5b60003560e01c908163358b81661461026b575080633bc007a814610200578063507cd30f14610171578063715018a6146101185780638da5cb5b146100ef5763f2fde38b1461006157600080fd5b346100ea5760203660031901126100ea5761007a6102a1565b6100826102b7565b6001600160a01b031680156100d457600080546001600160a01b03198116831782556001600160a01b0316907f8be0079c531659141344cd1fd0a4f28419497f9722a3daafe3b4186f6b6457e09080a3005b631e4fbdf760e01b600052600060045260246000fd5b600080fd5b346100ea5760003660031901126100ea576000546040516001600160a01b039091168152602090f35b346100ea5760003660031901126100ea576101316102b7565b600080546001600160a01b0319811682556001600160a01b03167f8be0079c531659141344cd1fd0a4f28419497f9722a3daafe3b4186f6b6457e08280a3005b346100ea5760403660031901126100ea5761018a6102a1565b602435906101966102b7565b6001600160a01b03166000818152600160205260409020805491928281019283106101ea577f0fe6fcb45adaaa54f7e3491f6a7964049817f1e437f33587e634a4629fbcf3a69260209255604051908152a2005b634e487b7160e01b600052601160045260246000fd5b346100ea5760403660031901126100ea576102196102a1565b7f259df9d652a361219319531e4a2ee3bde48700f85da495c317235fa3d1d0b6656020602435926102486102b7565b6001600160a01b03166000818152600183526040908190208590555193845292a2005b346100ea5760203660031901126100ea576020906001600160a01b0361028f6102a1565b16600052600182526040600020548152f35b600435906001600160a01b03821682036100ea57565b6000546001600160a01b031633036102cb57565b63118cdaa760e01b6000523360045260246000fdfea26469706673582212207b5a930f03da00a730a0ce333254e7387d3e550e4e2d89f954db74de97a4fc7264736f6c634300081e003360c06040523461046f576117ec8038038061001981610474565b928339810160e08282031261046f5781516001600160401b03811161046f5781610044918401610499565b602083015190916001600160401b03821161046f57610064918401610499565b90604083015160608401519161007c60808601610504565b9361008e60c060a08801519701610504565b825190926001600160401b03821161036c5760035490600182811c92168015610465575b602083101461034c5781601f8493116103f5575b50602090601f831160011461038d57600092610382575b50508160011b916000199060031b1c1916176003555b8051906001600160401b03821161036c5760045490600182811c92168015610362575b602083101461034c5781601f8493116102dc575b50602090601f831160011461027457600092610269575b50508160011b916000199060031b1c1916176004555b6001600160a01b031692831561025357600580546001600160a01b03198116861790915560405194906001600160a01b03167f8be0079c531659141344cd1fd0a4f28419497f9722a3daafe3b4186f6b6457e0600080a360016006556001600160a01b031692831561021e575060805260a052600780546001600160a01b0319169190911790556008556040516112d39081610519823960805181818161018f01528181610a6f0152610e5f015260a0518181816101b7015281816109ec0152610a490152f35b62461bcd60e51b815260206004820152601060248201526f696e76616c696420747265617375727960801b6044820152606490fd5b631e4fbdf760e01b600052600060045260246000fd5b015190503880610141565b600460009081528281209350601f198516905b8181106102c457509084600195949392106102ab575b505050811b01600455610157565b015160001960f88460031b161c1916905538808061029d565b92936020600181928786015181550195019301610287565b60046000529091507f8a35acfbc15ff81a39ae7d344fd709f28e8600b4aa8c65c6b64bfe7fe36bd19b601f840160051c81019160208510610342575b90601f859493920160051c01905b818110610333575061012a565b60008155849350600101610326565b9091508190610318565b634e487b7160e01b600052602260045260246000fd5b91607f1691610116565b634e487b7160e01b600052604160045260246000fd5b0151905038806100dd565b600360009081528281209350601f198516905b8181106103dd57509084600195949392106103c4575b505050811b016003556100f3565b015160001960f88460031b161c191690553880806103b6565b929360206001819287860151815501950193016103a0565b60036000529091507fc2575a0e9e593c00f959f8c92f12db2869c3395a3b0502d05e2516446f71f85b601f840160051c8101916020851061045b575b90601f859493920160051c01905b81811061044c57506100c6565b6000815584935060010161043f565b9091508190610431565b91607f16916100b2565b600080fd5b6040519190601f01601f191682016001600160401b0381118382101761036c57604052565b81601f8201121561046f578051906001600160401b03821161036c576104c8601f8301601f1916602001610474565b928284526020838301011161046f5760005b8281106104ef57505060206000918301015290565b806020809284010151828287010152016104da565b51906001600160a01b038216820361046f5756fe608080604052600436101561001d575b50361561001b57600080fd5b005b60003560e01c90816306fdde0314610f0857508063095ea7b314610e825780630dbe671f14610e4757806316c38b3c14610de557806318160ddd14610dc75780631f015ff014610b9e57806323b872dd14610ab157806324a9d85314610a9357806326a49e3714610a2b578063313ce56714610a0f5780634df7e3d0146109d45780635c975abb146109b157806361d027b31461098857806370a082311461094e578063715018a6146108f157806372c27b62146108985780638da5cb5b1461086f57806395d89b4114610767578063a9059cbb14610736578063c28620ac14610718578063c69b3112146106f2578063dd62ed3e146106a1578063de28735914610674578063ed9772b6146103c2578063f08391d81461030a578063f0f442601461028e578063f2fde38b146102045763f5ad797c1461015e573861000f565b346101ff5760203660031901126101ff5760206101f46004356101ef6009546101e961018a848361112f565b6101e97f0000000000000000000000000000000000000000000000000000000000000000916101e36101dd7f0000000000000000000000000000000000000000000000000000000000000000968761113c565b8461112f565b9461113c565b9061112f565b61113c565b60011c604051908152f35b600080fd5b346101ff5760203660031901126101ff5761021d61100d565b6102256111b9565b6001600160a01b0316801561027857600580546001600160a01b0319811683179091556001600160a01b03167f8be0079c531659141344cd1fd0a4f28419497f9722a3daafe3b4186f6b6457e0600080a3005b631e4fbdf760e01b600052600060045260246000fd5b346101ff5760203660031901126101ff576102a761100d565b6102af6111b9565b6001600160a01b031680156102db576bffffffffffffffffffffffff60a01b6007541617600755600080f35b60405162461bcd60e51b81526020600482015260076024820152661a5b9d985b1a5960ca1b6044820152606490fd5b346101ff5760203660031901126101ff5761032361100d565b61032b6111b9565b6001600160a01b03811690811561038f57600a8054610100600160a81b03191660089290921b610100600160a81b03169190911790556040519081527fd0761a673d8d97d3dd1e8beb78920467f6482d897a3d1a77d0749f20c653130d90602090a1005b60405162461bcd60e51b815260206004820152600b60248201526a1a5b9d985b1a59081858db60aa1b6044820152606490fd5b346101ff5760403660031901126101ff57600435600a546103e660ff821615611071565b60081c6001600160a01b031680151580610602575b61040591506110be565b61040d6111e2565b80156105d15761041c8161119c565b9061042b6024358310156110f8565b6104378160095461118f565b60095533156105bb576000913383528260205260408320548281106105a0578290338552846020520360408420558160025403600255826040518381527fddf252ad1be2c89b69c2b068fc378daa952ba7f163c4a11628f55a4df523b3ef60203392a36127106104a96008548361113c565b04838080806104b8858761118f565b335af16104c361114f565b501561056b5780849161050c575b505060405191825260208201527fed7a144fad14804d5c249145e3e0e2b63a9eb455b76aee5bc92d711e9bba3e4a60403392a2600160065580f35b600754829182918291906001600160a01b03165af161052961114f565b50156105365782846104d1565b60405162461bcd60e51b815260206004820152600d60248201526c199959481cd95b990819985a5b609a1b6044820152606490fd5b60405162461bcd60e51b815260206004820152600d60248201526c195d1a081cd95b990819985a5b609a1b6044820152606490fd5b63391434e360e21b8452336004526024526044829052606483fd5b634b637e8f60e11b600052600060045260246000fd5b60405162461bcd60e51b81526020600482015260096024820152686e6f20746f6b656e7360b81b6044820152606490fd5b506020602491604051928380926305a3b80960e01b82523360048301525afa80156106685761040591600091610639575b506103fb565b61065b915060203d602011610661575b6106538183611039565b8101906110a6565b83610633565b503d610649565b6040513d6000823e3d90fd5b346101ff5760003660031901126101ff57600a5460405160089190911c6001600160a01b03168152602090f35b346101ff5760403660031901126101ff576106ba61100d565b6106c2611023565b6001600160a01b039182166000908152600160209081526040808320949093168252928352819020549051908152f35b346101ff5760203660031901126101ff57602061071060043561119c565b604051908152f35b346101ff5760003660031901126101ff576020600954604051908152f35b346101ff5760403660031901126101ff5761075c61075261100d565b6024359033611204565b602060405160018152f35b346101ff5760003660031901126101ff5760405160006004548060011c90600181168015610865575b6020831081146108515782855290811561082d57506001146107cd575b6107c9836107bd81850382611039565b60405191829182610fc4565b0390f35b91905060046000527f8a35acfbc15ff81a39ae7d344fd709f28e8600b4aa8c65c6b64bfe7fe36bd19b916000905b808210610813575090915081016020016107bd6107ad565b9192600181602092548385880101520191019092916107fb565b60ff191660208086019190915291151560051b840190910191506107bd90506107ad565b634e487b7160e01b84526022600452602484fd5b91607f1691610790565b346101ff5760003660031901126101ff576005546040516001600160a01b039091168152602090f35b346101ff5760203660031901126101ff576004356108b46111b9565b6107d081116108c257600855005b60405162461bcd60e51b81526020600482015260076024820152666d61782032302560c81b6044820152606490fd5b346101ff5760003660031901126101ff5761090a6111b9565b600580546001600160a01b031981169091556000906001600160a01b03167f8be0079c531659141344cd1fd0a4f28419497f9722a3daafe3b4186f6b6457e08280a3005b346101ff5760203660031901126101ff576001600160a01b0361096f61100d565b1660005260006020526020604060002054604051908152f35b346101ff5760003660031901126101ff576007546040516001600160a01b039091168152602090f35b346101ff5760003660031901126101ff57602060ff600a54166040519015158152f35b346101ff5760003660031901126101ff5760206040517f00000000000000000000000000000000000000000000000000000000000000008152f35b346101ff5760003660031901126101ff57602060405160128152f35b346101ff5760203660031901126101ff576020610710610a6d6004357f000000000000000000000000000000000000000000000000000000000000000061113c565b7f000000000000000000000000000000000000000000000000000000000000000061112f565b346101ff5760003660031901126101ff576020600854604051908152f35b346101ff5760603660031901126101ff57610aca61100d565b610ad2611023565b6001600160a01b0382166000818152600160208181526040808420338552909152909120549193604435939290918101610b12575b5061075c9350611204565b838110610b81578415610b6b573315610b555761075c946000526001602052604060002060018060a01b0333166000526020528360406000209103905584610b07565b634a1406b160e11b600052600060045260246000fd5b63e602df0560e01b600052600060045260246000fd5b8390637dc7a0d960e11b6000523360045260245260445260646000fd5b60203660031901126101ff57600a54610bba60ff821615611071565b60081c6001600160a01b031680151580610d71575b610bd991506110be565b610be16111e2565b3415610d43576103e834023481046103e803610d2d57610c056004358210156110f8565b610c118160095461112f565b6009553315610d1757610c268160025461112f565b6002556000903382528160205260408220818154019055604051818152827fddf252ad1be2c89b69c2b068fc378daa952ba7f163c4a11628f55a4df523b3ef60203393a38160085480610cb0575b50506040519034825260208201527f1cbc5ab135991bd2b6a4b034a04aa2aa086dac1371cb9b16b8b5e2ed6b036bed60403392a2600160065580f35b8180612710610cc082943461113c565b600754919004906001600160a01b03165af1610cda61114f565b5015610ce7578183610c74565b60405162461bcd60e51b81526020600482015260086024820152671999594819985a5b60c21b6044820152606490fd5b63ec442f0560e01b600052600060045260246000fd5b634e487b7160e01b600052601160045260246000fd5b60405162461bcd60e51b81526020600482015260066024820152650dcde40cae8d60d31b6044820152606490fd5b506020602491604051928380926305a3b80960e01b82523360048301525afa801561066857610bd991600091610da8575b50610bcf565b610dc1915060203d602011610661576106538183611039565b82610da2565b346101ff5760003660031901126101ff576020600254604051908152f35b346101ff5760203660031901126101ff576004358015158091036101ff5760207f40db37ff5c0bdc2c427fbb2078c8f24afea940abac0e3c23bb4ea3bf2da2b21291610e2f6111b9565b60ff19600a541660ff821617600a55604051908152a1005b346101ff5760003660031901126101ff5760206040517f00000000000000000000000000000000000000000000000000000000000000008152f35b346101ff5760403660031901126101ff57610e9b61100d565b602435903315610b6b576001600160a01b0316908115610b5557336000526001602052604060002082600052602052806040600020556040519081527f8c5be1e5ebec7d5bd14f71427d1e84f3dd0314c0f7b2291e5b200ac8c7c3b92560203392a3602060405160018152f35b346101ff5760003660031901126101ff5760006003548060011c90600181168015610fba575b6020831081146108515782855290811561082d5750600114610f5a576107c9836107bd81850382611039565b91905060036000527fc2575a0e9e593c00f959f8c92f12db2869c3395a3b0502d05e2516446f71f85b916000905b808210610fa0575090915081016020016107bd6107ad565b919260018160209254838588010152019101909291610f88565b91607f1691610f2e565b91909160208152825180602083015260005b818110610ff7575060409293506000838284010152601f8019910116010190565b8060208092870101516040828601015201610fd6565b600435906001600160a01b03821682036101ff57565b602435906001600160a01b03821682036101ff57565b90601f8019910116810190811067ffffffffffffffff82111761105b57604052565b634e487b7160e01b600052604160045260246000fd5b1561107857565b60405162461bcd60e51b81526020600482015260066024820152651c185d5cd95960d21b6044820152606490fd5b908160209103126101ff575180151581036101ff5790565b156110c557565b60405162461bcd60e51b815260206004820152600b60248201526a1b9bdd08185b1b1bddd95960aa1b6044820152606490fd5b156110ff57565b60405162461bcd60e51b8152602060048201526008602482015267736c69707061676560c01b6044820152606490fd5b91908201809211610d2d57565b81810292918115918404141715610d2d57565b3d1561118a573d9067ffffffffffffffff821161105b576040519161117e601f8201601f191660200184611039565b82523d6000602084013e565b606090565b91908203918211610d2d57565b6111b3906101ef6009546101e961018a848361118f565b60011c90565b6005546001600160a01b031633036111cd57565b63118cdaa760e01b6000523360045260246000fd5b6002600654146111f3576002600655565b633ee5aeb560e01b60005260046000fd5b6001600160a01b03169081156105bb576001600160a01b0316918215610d175760008281528060205260408120548281106112835791604082827fddf252ad1be2c89b69c2b068fc378daa952ba7f163c4a11628f55a4df523b3ef958760209652828652038282205586815280845220818154019055604051908152a3565b916064928463391434e360e21b8452600452602452604452fdfea2646970667358221220964bb07b9b45f4cd11bb5f22df75b8ad8b7915e5c7ea1c1108b4e43ef70c526164736f6c634300081e0033a26469706673582212204d40743ab98630032ac1eb48dd03ca2298614580c508dfd9e470b0057211a2d664736f6c634300081e0033","linkReferences":{}},"methodIdentifiers":{"createSongToken(string,string,uint256,uint256,address,uint256)":"48de4b87","forwardAllowlist(address,address[],bool)":"2753c0eb","forwardSetPhase(address,uint8)":"f02ce014","forwardTransferAclOwnership(address,address)":"2095bcc0","getTokens()":"aa6ca808","owner()":"8da5cb5b","renounceOwnership()":"715018a6","tokens(uint256)":"4f64b2be","transferOwnership(address)":"f2fde38b"},"id":26}